{
	"contracts/Authentication.sol": {
		"Authentication": {
			"abi": [
				{
					"inputs": [],
					"name": "authenticate",
					"outputs": [],
					"stateMutability": "nonpayable",
					"type": "function"
				},
				{
					"inputs": [
						{
							"internalType": "address",
							"name": "",
							"type": "address"
						}
					],
					"name": "users",
					"outputs": [
						{
							"internalType": "bool",
							"name": "",
							"type": "bool"
						}
					],
					"stateMutability": "view",
					"type": "function"
				}
			],
			"devdoc": {
				"kind": "dev",
				"methods": {},
				"version": 1
			},
			"evm": {
				"assembly": "    /* \"contracts/Authentication.sol\":63:257  contract Authentication {\r... */\n  mstore(0x40, 0x80)\n  callvalue\n  dup1\n  iszero\n  tag_1\n  jumpi\n  0x00\n  dup1\n  revert\ntag_1:\n  pop\n  dataSize(sub_0)\n  dup1\n  dataOffset(sub_0)\n  0x00\n  codecopy\n  0x00\n  return\nstop\n\nsub_0: assembly {\n        /* \"contracts/Authentication.sol\":63:257  contract Authentication {\r... */\n      mstore(0x40, 0x80)\n      callvalue\n      dup1\n      iszero\n      tag_1\n      jumpi\n      0x00\n      dup1\n      revert\n    tag_1:\n      pop\n      jumpi(tag_2, lt(calldatasize, 0x04))\n      shr(0xe0, calldataload(0x00))\n      dup1\n      0x380c7a67\n      eq\n      tag_3\n      jumpi\n      dup1\n      0xa87430ba\n      eq\n      tag_4\n      jumpi\n    tag_2:\n      0x00\n      dup1\n      revert\n        /* \"contracts/Authentication.sol\":159:250  function authenticate () public {\r... */\n    tag_3:\n      tag_5\n      tag_6\n      jump\t// in\n    tag_5:\n      stop\n        /* \"contracts/Authentication.sol\":104:142  mapping(address => bool ) public users */\n    tag_4:\n      tag_7\n      0x04\n      dup1\n      calldatasize\n      sub\n      dup2\n      add\n      swap1\n      tag_8\n      swap2\n      swap1\n      tag_9\n      jump\t// in\n    tag_8:\n      tag_10\n      jump\t// in\n    tag_7:\n      mload(0x40)\n      tag_11\n      swap2\n      swap1\n      tag_12\n      jump\t// in\n    tag_11:\n      mload(0x40)\n      dup1\n      swap2\n      sub\n      swap1\n      return\n        /* \"contracts/Authentication.sol\":159:250  function authenticate () public {\r... */\n    tag_6:\n        /* \"contracts/Authentication.sol\":230:234  true */\n      0x01\n        /* \"contracts/Authentication.sol\":210:215  users */\n      0x00\n        /* \"contracts/Authentication.sol\":210:227  users[msg.sender] */\n      dup1\n        /* \"contracts/Authentication.sol\":216:226  msg.sender */\n      caller\n        /* \"contracts/Authentication.sol\":210:227  users[msg.sender] */\n      0xffffffffffffffffffffffffffffffffffffffff\n      and\n      0xffffffffffffffffffffffffffffffffffffffff\n      and\n      dup2\n      mstore\n      0x20\n      add\n      swap1\n      dup2\n      mstore\n      0x20\n      add\n      0x00\n      keccak256\n      0x00\n        /* \"contracts/Authentication.sol\":210:234  users[msg.sender] = true */\n      0x0100\n      exp\n      dup2\n      sload\n      dup2\n      0xff\n      mul\n      not\n      and\n      swap1\n      dup4\n      iszero\n      iszero\n      mul\n      or\n      swap1\n      sstore\n      pop\n        /* \"contracts/Authentication.sol\":159:250  function authenticate () public {\r... */\n      jump\t// out\n        /* \"contracts/Authentication.sol\":104:142  mapping(address => bool ) public users */\n    tag_10:\n      mstore(0x20, 0x00)\n      dup1\n      0x00\n      mstore\n      keccak256(0x00, 0x40)\n      0x00\n      swap2\n      pop\n      sload\n      swap1\n      0x0100\n      exp\n      swap1\n      div\n      0xff\n      and\n      dup2\n      jump\t// out\n        /* \"#utility.yul\":7:146   */\n    tag_15:\n        /* \"#utility.yul\":53:58   */\n      0x00\n        /* \"#utility.yul\":91:97   */\n      dup2\n        /* \"#utility.yul\":78:98   */\n      calldataload\n        /* \"#utility.yul\":69:98   */\n      swap1\n      pop\n        /* \"#utility.yul\":107:140   */\n      tag_17\n        /* \"#utility.yul\":134:139   */\n      dup2\n        /* \"#utility.yul\":107:140   */\n      tag_18\n      jump\t// in\n    tag_17:\n        /* \"#utility.yul\":7:146   */\n      swap3\n      swap2\n      pop\n      pop\n      jump\t// out\n        /* \"#utility.yul\":152:481   */\n    tag_9:\n        /* \"#utility.yul\":211:217   */\n      0x00\n        /* \"#utility.yul\":260:262   */\n      0x20\n        /* \"#utility.yul\":248:257   */\n      dup3\n        /* \"#utility.yul\":239:246   */\n      dup5\n        /* \"#utility.yul\":235:258   */\n      sub\n        /* \"#utility.yul\":231:263   */\n      slt\n        /* \"#utility.yul\":228:347   */\n      iszero\n      tag_20\n      jumpi\n        /* \"#utility.yul\":266:345   */\n      tag_21\n      tag_22\n      jump\t// in\n    tag_21:\n        /* \"#utility.yul\":228:347   */\n    tag_20:\n        /* \"#utility.yul\":386:387   */\n      0x00\n        /* \"#utility.yul\":411:464   */\n      tag_23\n        /* \"#utility.yul\":456:463   */\n      dup5\n        /* \"#utility.yul\":447:453   */\n      dup3\n        /* \"#utility.yul\":436:445   */\n      dup6\n        /* \"#utility.yul\":432:454   */\n      add\n        /* \"#utility.yul\":411:464   */\n      tag_15\n      jump\t// in\n    tag_23:\n        /* \"#utility.yul\":401:464   */\n      swap2\n      pop\n        /* \"#utility.yul\":357:474   */\n      pop\n        /* \"#utility.yul\":152:481   */\n      swap3\n      swap2\n      pop\n      pop\n      jump\t// out\n        /* \"#utility.yul\":487:596   */\n    tag_24:\n        /* \"#utility.yul\":568:589   */\n      tag_26\n        /* \"#utility.yul\":583:588   */\n      dup2\n        /* \"#utility.yul\":568:589   */\n      tag_27\n      jump\t// in\n    tag_26:\n        /* \"#utility.yul\":563:566   */\n      dup3\n        /* \"#utility.yul\":556:590   */\n      mstore\n        /* \"#utility.yul\":487:596   */\n      pop\n      pop\n      jump\t// out\n        /* \"#utility.yul\":602:812   */\n    tag_12:\n        /* \"#utility.yul\":689:693   */\n      0x00\n        /* \"#utility.yul\":727:729   */\n      0x20\n        /* \"#utility.yul\":716:725   */\n      dup3\n        /* \"#utility.yul\":712:730   */\n      add\n        /* \"#utility.yul\":704:730   */\n      swap1\n      pop\n        /* \"#utility.yul\":740:805   */\n      tag_29\n        /* \"#utility.yul\":802:803   */\n      0x00\n        /* \"#utility.yul\":791:800   */\n      dup4\n        /* \"#utility.yul\":787:804   */\n      add\n        /* \"#utility.yul\":778:784   */\n      dup5\n        /* \"#utility.yul\":740:805   */\n      tag_24\n      jump\t// in\n    tag_29:\n        /* \"#utility.yul\":602:812   */\n      swap3\n      swap2\n      pop\n      pop\n      jump\t// out\n        /* \"#utility.yul\":899:995   */\n    tag_32:\n        /* \"#utility.yul\":936:943   */\n      0x00\n        /* \"#utility.yul\":965:989   */\n      tag_34\n        /* \"#utility.yul\":983:988   */\n      dup3\n        /* \"#utility.yul\":965:989   */\n      tag_35\n      jump\t// in\n    tag_34:\n        /* \"#utility.yul\":954:989   */\n      swap1\n      pop\n        /* \"#utility.yul\":899:995   */\n      swap2\n      swap1\n      pop\n      jump\t// out\n        /* \"#utility.yul\":1001:1091   */\n    tag_27:\n        /* \"#utility.yul\":1035:1042   */\n      0x00\n        /* \"#utility.yul\":1078:1083   */\n      dup2\n        /* \"#utility.yul\":1071:1084   */\n      iszero\n        /* \"#utility.yul\":1064:1085   */\n      iszero\n        /* \"#utility.yul\":1053:1085   */\n      swap1\n      pop\n        /* \"#utility.yul\":1001:1091   */\n      swap2\n      swap1\n      pop\n      jump\t// out\n        /* \"#utility.yul\":1097:1223   */\n    tag_35:\n        /* \"#utility.yul\":1134:1141   */\n      0x00\n        /* \"#utility.yul\":1174:1216   */\n      0xffffffffffffffffffffffffffffffffffffffff\n        /* \"#utility.yul\":1167:1172   */\n      dup3\n        /* \"#utility.yul\":1163:1217   */\n      and\n        /* \"#utility.yul\":1152:1217   */\n      swap1\n      pop\n        /* \"#utility.yul\":1097:1223   */\n      swap2\n      swap1\n      pop\n      jump\t// out\n        /* \"#utility.yul\":1352:1469   */\n    tag_22:\n        /* \"#utility.yul\":1461:1462   */\n      0x00\n        /* \"#utility.yul\":1458:1459   */\n      dup1\n        /* \"#utility.yul\":1451:1463   */\n      revert\n        /* \"#utility.yul\":1475:1597   */\n    tag_18:\n        /* \"#utility.yul\":1548:1572   */\n      tag_42\n        /* \"#utility.yul\":1566:1571   */\n      dup2\n        /* \"#utility.yul\":1548:1572   */\n      tag_32\n      jump\t// in\n    tag_42:\n        /* \"#utility.yul\":1541:1546   */\n      dup2\n        /* \"#utility.yul\":1538:1573   */\n      eq\n        /* \"#utility.yul\":1528:1591   */\n      tag_43\n      jumpi\n        /* \"#utility.yul\":1587:1588   */\n      0x00\n        /* \"#utility.yul\":1584:1585   */\n      dup1\n        /* \"#utility.yul\":1577:1589   */\n      revert\n        /* \"#utility.yul\":1528:1591   */\n    tag_43:\n        /* \"#utility.yul\":1475:1597   */\n      pop\n      jump\t// out\n\n    auxdata: 0xa264697066735822122088f1877778aa83828573034125bf9ec2a3ed506ba71c1b7c33830aa54129c97464736f6c63430008070033\n}\n",
				"bytecode": {
					"linkReferences": {},
					"object": "608060405234801561001057600080fd5b506101ea806100206000396000f3fe608060405234801561001057600080fd5b50600436106100365760003560e01c8063380c7a671461003b578063a87430ba14610045575b600080fd5b610043610075565b005b61005f600480360381019061005a9190610103565b6100ce565b60405161006c919061013f565b60405180910390f35b60016000803373ffffffffffffffffffffffffffffffffffffffff1673ffffffffffffffffffffffffffffffffffffffff16815260200190815260200160002060006101000a81548160ff021916908315150217905550565b60006020528060005260406000206000915054906101000a900460ff1681565b6000813590506100fd8161019d565b92915050565b60006020828403121561011957610118610198565b5b6000610127848285016100ee565b91505092915050565b6101398161016c565b82525050565b60006020820190506101546000830184610130565b92915050565b600061016582610178565b9050919050565b60008115159050919050565b600073ffffffffffffffffffffffffffffffffffffffff82169050919050565b600080fd5b6101a68161015a565b81146101b157600080fd5b5056fea264697066735822122088f1877778aa83828573034125bf9ec2a3ed506ba71c1b7c33830aa54129c97464736f6c63430008070033",
					"opcodes": "PUSH1 0x80 PUSH1 0x40 MSTORE CALLVALUE DUP1 ISZERO PUSH2 0x10 JUMPI PUSH1 0x0 DUP1 REVERT JUMPDEST POP PUSH2 0x1EA DUP1 PUSH2 0x20 PUSH1 0x0 CODECOPY PUSH1 0x0 RETURN INVALID PUSH1 0x80 PUSH1 0x40 MSTORE CALLVALUE DUP1 ISZERO PUSH2 0x10 JUMPI PUSH1 0x0 DUP1 REVERT JUMPDEST POP PUSH1 0x4 CALLDATASIZE LT PUSH2 0x36 JUMPI PUSH1 0x0 CALLDATALOAD PUSH1 0xE0 SHR DUP1 PUSH4 0x380C7A67 EQ PUSH2 0x3B JUMPI DUP1 PUSH4 0xA87430BA EQ PUSH2 0x45 JUMPI JUMPDEST PUSH1 0x0 DUP1 REVERT JUMPDEST PUSH2 0x43 PUSH2 0x75 JUMP JUMPDEST STOP JUMPDEST PUSH2 0x5F PUSH1 0x4 DUP1 CALLDATASIZE SUB DUP2 ADD SWAP1 PUSH2 0x5A SWAP2 SWAP1 PUSH2 0x103 JUMP JUMPDEST PUSH2 0xCE JUMP JUMPDEST PUSH1 0x40 MLOAD PUSH2 0x6C SWAP2 SWAP1 PUSH2 0x13F JUMP JUMPDEST PUSH1 0x40 MLOAD DUP1 SWAP2 SUB SWAP1 RETURN JUMPDEST PUSH1 0x1 PUSH1 0x0 DUP1 CALLER PUSH20 0xFFFFFFFFFFFFFFFFFFFFFFFFFFFFFFFFFFFFFFFF AND PUSH20 0xFFFFFFFFFFFFFFFFFFFFFFFFFFFFFFFFFFFFFFFF AND DUP2 MSTORE PUSH1 0x20 ADD SWAP1 DUP2 MSTORE PUSH1 0x20 ADD PUSH1 0x0 KECCAK256 PUSH1 0x0 PUSH2 0x100 EXP DUP2 SLOAD DUP2 PUSH1 0xFF MUL NOT AND SWAP1 DUP4 ISZERO ISZERO MUL OR SWAP1 SSTORE POP JUMP JUMPDEST PUSH1 0x0 PUSH1 0x20 MSTORE DUP1 PUSH1 0x0 MSTORE PUSH1 0x40 PUSH1 0x0 KECCAK256 PUSH1 0x0 SWAP2 POP SLOAD SWAP1 PUSH2 0x100 EXP SWAP1 DIV PUSH1 0xFF AND DUP2 JUMP JUMPDEST PUSH1 0x0 DUP2 CALLDATALOAD SWAP1 POP PUSH2 0xFD DUP2 PUSH2 0x19D JUMP JUMPDEST SWAP3 SWAP2 POP POP JUMP JUMPDEST PUSH1 0x0 PUSH1 0x20 DUP3 DUP5 SUB SLT ISZERO PUSH2 0x119 JUMPI PUSH2 0x118 PUSH2 0x198 JUMP JUMPDEST JUMPDEST PUSH1 0x0 PUSH2 0x127 DUP5 DUP3 DUP6 ADD PUSH2 0xEE JUMP JUMPDEST SWAP2 POP POP SWAP3 SWAP2 POP POP JUMP JUMPDEST PUSH2 0x139 DUP2 PUSH2 0x16C JUMP JUMPDEST DUP3 MSTORE POP POP JUMP JUMPDEST PUSH1 0x0 PUSH1 0x20 DUP3 ADD SWAP1 POP PUSH2 0x154 PUSH1 0x0 DUP4 ADD DUP5 PUSH2 0x130 JUMP JUMPDEST SWAP3 SWAP2 POP POP JUMP JUMPDEST PUSH1 0x0 PUSH2 0x165 DUP3 PUSH2 0x178 JUMP JUMPDEST SWAP1 POP SWAP2 SWAP1 POP JUMP JUMPDEST PUSH1 0x0 DUP2 ISZERO ISZERO SWAP1 POP SWAP2 SWAP1 POP JUMP JUMPDEST PUSH1 0x0 PUSH20 0xFFFFFFFFFFFFFFFFFFFFFFFFFFFFFFFFFFFFFFFF DUP3 AND SWAP1 POP SWAP2 SWAP1 POP JUMP JUMPDEST PUSH1 0x0 DUP1 REVERT JUMPDEST PUSH2 0x1A6 DUP2 PUSH2 0x15A JUMP JUMPDEST DUP2 EQ PUSH2 0x1B1 JUMPI PUSH1 0x0 DUP1 REVERT JUMPDEST POP JUMP INVALID LOG2 PUSH5 0x6970667358 0x22 SLT KECCAK256 DUP9 CALL DUP8 PUSH24 0x78AA83828573034125BF9EC2A3ED506BA71C1B7C33830AA5 COINBASE 0x29 0xC9 PUSH21 0x64736F6C6343000807003300000000000000000000 "
				},
				"gasEstimates": {
					"creation": {
						"codeDepositCost": "98000",
						"executionCost": "147",
						"totalCost": "98147"
					},
					"external": {
						"authenticate()": "24478",
						"users(address)": "2845"
					}
				},
				"methodIdentifiers": {
					"authenticate()": "380c7a67",
					"users(address)": "a87430ba"
				}
			},
			"storageLayout": {
				"storage": [
					{
						"astId": 5,
						"contract": "contracts/Authentication.sol:Authentication",
						"label": "users",
						"offset": 0,
						"slot": "0",
						"type": "t_mapping(t_address,t_bool)"
					}
				],
				"types": {
					"t_address": {
						"encoding": "inplace",
						"label": "address",
						"numberOfBytes": "20"
					},
					"t_bool": {
						"encoding": "inplace",
						"label": "bool",
						"numberOfBytes": "1"
					},
					"t_mapping(t_address,t_bool)": {
						"encoding": "mapping",
						"key": "t_address",
						"label": "mapping(address => bool)",
						"numberOfBytes": "32",
						"value": "t_bool"
					}
				}
			},
			"userdoc": {
				"kind": "user",
				"methods": {},
				"version": 1
			}
		}
	}
}