{
	"contracts/artifacts/MyProfile.sol": {
		"Identity": {
			"abi": [
				{
					"inputs": [
						{
							"internalType": "string",
							"name": "name",
							"type": "string"
						},
						{
							"internalType": "string",
							"name": "email",
							"type": "string"
						},
						{
							"internalType": "uint256",
							"name": "salary",
							"type": "uint256"
						},
						{
							"internalType": "string",
							"name": "_address",
							"type": "string"
						}
					],
					"stateMutability": "nonpayable",
					"type": "constructor"
				},
				{
					"inputs": [
						{
							"internalType": "address",
							"name": "user",
							"type": "address"
						},
						{
							"internalType": "enum Identity.UserType",
							"name": "userType",
							"type": "uint8"
						}
					],
					"name": "UserUnauthorized",
					"type": "error"
				},
				{
					"inputs": [],
					"name": "getBasicInfo",
					"outputs": [
						{
							"components": [
								{
									"internalType": "string",
									"name": "name",
									"type": "string"
								},
								{
									"internalType": "string",
									"name": "email",
									"type": "string"
								}
							],
							"internalType": "struct Identity.BasicInfo",
							"name": "",
							"type": "tuple"
						}
					],
					"stateMutability": "view",
					"type": "function"
				},
				{
					"inputs": [],
					"name": "getPersonalInfo",
					"outputs": [
						{
							"components": [
								{
									"internalType": "uint256",
									"name": "salary",
									"type": "uint256"
								},
								{
									"internalType": "string",
									"name": "_address",
									"type": "string"
								}
							],
							"internalType": "struct Identity.PersonalInfo",
							"name": "",
							"type": "tuple"
						}
					],
					"stateMutability": "view",
					"type": "function"
				},
				{
					"inputs": [
						{
							"internalType": "enum Identity.UserType",
							"name": "userType",
							"type": "uint8"
						},
						{
							"internalType": "address",
							"name": "user",
							"type": "address"
						}
					],
					"name": "registerUser",
					"outputs": [],
					"stateMutability": "nonpayable",
					"type": "function"
				}
			],
			"devdoc": {
				"kind": "dev",
				"methods": {},
				"version": 1
			},
			"evm": {
				"assembly": "    /* \"contracts/artifacts/MyProfile.sol\":2:2053  contract Identity {\r... */\n  mstore(0x40, 0x80)\n    /* \"contracts/artifacts/MyProfile.sol\":649:880  constructor(string memory name, string memory email, uint256 salary, string memory _address) {\r... */\n  callvalue\n  dup1\n  iszero\n  tag_1\n  jumpi\n  0x00\n  dup1\n  revert\ntag_1:\n  pop\n  mload(0x40)\n  sub(codesize, bytecodeSize)\n  dup1\n  bytecodeSize\n  dup4\n  codecopy\n  dup2\n  dup2\n  add\n  0x40\n  mstore\n  dup2\n  add\n  swap1\n  tag_2\n  swap2\n  swap1\n  tag_3\n  jump\t// in\ntag_2:\n    /* \"contracts/artifacts/MyProfile.sol\":765:787  BasicInfo(name, email) */\n  mload(0x40)\n  dup1\n  0x40\n  add\n  0x40\n  mstore\n  dup1\n    /* \"contracts/artifacts/MyProfile.sol\":775:779  name */\n  dup6\n    /* \"contracts/artifacts/MyProfile.sol\":765:787  BasicInfo(name, email) */\n  dup2\n  mstore\n  0x20\n  add\n    /* \"contracts/artifacts/MyProfile.sol\":781:786  email */\n  dup5\n    /* \"contracts/artifacts/MyProfile.sol\":765:787  BasicInfo(name, email) */\n  dup2\n  mstore\n  pop\n    /* \"contracts/artifacts/MyProfile.sol\":753:762  basicInfo */\n  0x00\n    /* \"contracts/artifacts/MyProfile.sol\":753:787  basicInfo = BasicInfo(name, email) */\n  dup1\n  dup3\n  add\n  mload\n  dup2\n  0x00\n  add\n  swap1\n  dup1\n  mload\n  swap1\n  0x20\n  add\n  swap1\n  tag_6\n  swap3\n  swap2\n  swap1\n  tag_7\n  jump\t// in\ntag_6:\n  pop\n  0x20\n  dup3\n  add\n  mload\n  dup2\n  0x01\n  add\n  swap1\n  dup1\n  mload\n  swap1\n  0x20\n  add\n  swap1\n  tag_8\n  swap3\n  swap2\n  swap1\n  tag_7\n  jump\t// in\ntag_8:\n  pop\n  swap1\n  pop\n  pop\n    /* \"contracts/artifacts/MyProfile.sol\":813:843  PersonalInfo(salary, _address) */\n  mload(0x40)\n  dup1\n  0x40\n  add\n  0x40\n  mstore\n  dup1\n    /* \"contracts/artifacts/MyProfile.sol\":826:832  salary */\n  dup4\n    /* \"contracts/artifacts/MyProfile.sol\":813:843  PersonalInfo(salary, _address) */\n  dup2\n  mstore\n  0x20\n  add\n    /* \"contracts/artifacts/MyProfile.sol\":834:842  _address */\n  dup3\n    /* \"contracts/artifacts/MyProfile.sol\":813:843  PersonalInfo(salary, _address) */\n  dup2\n  mstore\n  pop\n    /* \"contracts/artifacts/MyProfile.sol\":798:810  personalInfo */\n  0x02\n    /* \"contracts/artifacts/MyProfile.sol\":798:843  personalInfo = PersonalInfo(salary, _address) */\n  0x00\n  dup3\n  add\n  mload\n  dup2\n  0x00\n  add\n  sstore\n  0x20\n  dup3\n  add\n  mload\n  dup2\n  0x01\n  add\n  swap1\n  dup1\n  mload\n  swap1\n  0x20\n  add\n  swap1\n  tag_9\n  swap3\n  swap2\n  swap1\n  tag_7\n  jump\t// in\ntag_9:\n  pop\n  swap1\n  pop\n  pop\n    /* \"contracts/artifacts/MyProfile.sol\":862:872  msg.sender */\n  caller\n    /* \"contracts/artifacts/MyProfile.sol\":854:859  owner */\n  0x04\n  0x00\n    /* \"contracts/artifacts/MyProfile.sol\":854:872  owner = msg.sender */\n  0x0100\n  exp\n  dup2\n  sload\n  dup2\n  0xffffffffffffffffffffffffffffffffffffffff\n  mul\n  not\n  and\n  swap1\n  dup4\n  0xffffffffffffffffffffffffffffffffffffffff\n  and\n  mul\n  or\n  swap1\n  sstore\n  pop\n    /* \"contracts/artifacts/MyProfile.sol\":649:880  constructor(string memory name, string memory email, uint256 salary, string memory _address) {\r... */\n  pop\n  pop\n  pop\n  pop\n    /* \"contracts/artifacts/MyProfile.sol\":2:2053  contract Identity {\r... */\n  jump(tag_10)\ntag_7:\n  dup3\n  dup1\n  sload\n  tag_11\n  swap1\n  tag_12\n  jump\t// in\ntag_11:\n  swap1\n  0x00\n  mstore\n  keccak256(0x00, 0x20)\n  swap1\n  0x1f\n  add\n  0x20\n  swap1\n  div\n  dup2\n  add\n  swap3\n  dup3\n  tag_14\n  jumpi\n  0x00\n  dup6\n  sstore\n  jump(tag_13)\ntag_14:\n  dup3\n  0x1f\n  lt\n  tag_15\n  jumpi\n  dup1\n  mload\n  not(0xff)\n  and\n  dup4\n  dup1\n  add\n  or\n  dup6\n  sstore\n  jump(tag_13)\ntag_15:\n  dup3\n  dup1\n  add\n  0x01\n  add\n  dup6\n  sstore\n  dup3\n  iszero\n  tag_13\n  jumpi\n  swap2\n  dup3\n  add\ntag_16:\n  dup3\n  dup2\n  gt\n  iszero\n  tag_17\n  jumpi\n  dup3\n  mload\n  dup3\n  sstore\n  swap2\n  0x20\n  add\n  swap2\n  swap1\n  0x01\n  add\n  swap1\n  jump(tag_16)\ntag_17:\ntag_13:\n  pop\n  swap1\n  pop\n  tag_18\n  swap2\n  swap1\n  tag_19\n  jump\t// in\ntag_18:\n  pop\n  swap1\n  jump\t// out\ntag_19:\ntag_20:\n  dup1\n  dup3\n  gt\n  iszero\n  tag_21\n  jumpi\n  0x00\n  dup2\n  0x00\n  swap1\n  sstore\n  pop\n  0x01\n  add\n  jump(tag_20)\ntag_21:\n  pop\n  swap1\n  jump\t// out\n    /* \"#utility.yul\":7:428   */\ntag_23:\n    /* \"#utility.yul\":96:101   */\n  0x00\n    /* \"#utility.yul\":121:187   */\n  tag_25\n    /* \"#utility.yul\":137:186   */\n  tag_26\n    /* \"#utility.yul\":179:185   */\n  dup5\n    /* \"#utility.yul\":137:186   */\n  tag_27\n  jump\t// in\ntag_26:\n    /* \"#utility.yul\":121:187   */\n  tag_28\n  jump\t// in\ntag_25:\n    /* \"#utility.yul\":112:187   */\n  swap1\n  pop\n    /* \"#utility.yul\":210:216   */\n  dup3\n    /* \"#utility.yul\":203:208   */\n  dup2\n    /* \"#utility.yul\":196:217   */\n  mstore\n    /* \"#utility.yul\":248:252   */\n  0x20\n    /* \"#utility.yul\":241:246   */\n  dup2\n    /* \"#utility.yul\":237:253   */\n  add\n    /* \"#utility.yul\":286:289   */\n  dup5\n    /* \"#utility.yul\":277:283   */\n  dup5\n    /* \"#utility.yul\":272:275   */\n  dup5\n    /* \"#utility.yul\":268:284   */\n  add\n    /* \"#utility.yul\":265:290   */\n  gt\n    /* \"#utility.yul\":262:374   */\n  iszero\n  tag_29\n  jumpi\n    /* \"#utility.yul\":293:372   */\n  tag_30\n  tag_31\n  jump\t// in\ntag_30:\n    /* \"#utility.yul\":262:374   */\ntag_29:\n    /* \"#utility.yul\":383:422   */\n  tag_32\n    /* \"#utility.yul\":415:421   */\n  dup5\n    /* \"#utility.yul\":410:413   */\n  dup3\n    /* \"#utility.yul\":405:408   */\n  dup6\n    /* \"#utility.yul\":383:422   */\n  tag_33\n  jump\t// in\ntag_32:\n    /* \"#utility.yul\":102:428   */\n  pop\n    /* \"#utility.yul\":7:428   */\n  swap4\n  swap3\n  pop\n  pop\n  pop\n  jump\t// out\n    /* \"#utility.yul\":448:803   */\ntag_34:\n    /* \"#utility.yul\":515:520   */\n  0x00\n    /* \"#utility.yul\":564:567   */\n  dup3\n    /* \"#utility.yul\":557:561   */\n  0x1f\n    /* \"#utility.yul\":549:555   */\n  dup4\n    /* \"#utility.yul\":545:562   */\n  add\n    /* \"#utility.yul\":541:568   */\n  slt\n    /* \"#utility.yul\":531:653   */\n  tag_36\n  jumpi\n    /* \"#utility.yul\":572:651   */\n  tag_37\n  tag_38\n  jump\t// in\ntag_37:\n    /* \"#utility.yul\":531:653   */\ntag_36:\n    /* \"#utility.yul\":682:688   */\n  dup2\n    /* \"#utility.yul\":676:689   */\n  mload\n    /* \"#utility.yul\":707:797   */\n  tag_39\n    /* \"#utility.yul\":793:796   */\n  dup5\n    /* \"#utility.yul\":785:791   */\n  dup3\n    /* \"#utility.yul\":778:782   */\n  0x20\n    /* \"#utility.yul\":770:776   */\n  dup7\n    /* \"#utility.yul\":766:783   */\n  add\n    /* \"#utility.yul\":707:797   */\n  tag_23\n  jump\t// in\ntag_39:\n    /* \"#utility.yul\":698:797   */\n  swap2\n  pop\n    /* \"#utility.yul\":521:803   */\n  pop\n    /* \"#utility.yul\":448:803   */\n  swap3\n  swap2\n  pop\n  pop\n  jump\t// out\n    /* \"#utility.yul\":809:952   */\ntag_40:\n    /* \"#utility.yul\":866:871   */\n  0x00\n    /* \"#utility.yul\":897:903   */\n  dup2\n    /* \"#utility.yul\":891:904   */\n  mload\n    /* \"#utility.yul\":882:904   */\n  swap1\n  pop\n    /* \"#utility.yul\":913:946   */\n  tag_42\n    /* \"#utility.yul\":940:945   */\n  dup2\n    /* \"#utility.yul\":913:946   */\n  tag_43\n  jump\t// in\ntag_42:\n    /* \"#utility.yul\":809:952   */\n  swap3\n  swap2\n  pop\n  pop\n  jump\t// out\n    /* \"#utility.yul\":958:2297   */\ntag_3:\n    /* \"#utility.yul\":1085:1091   */\n  0x00\n    /* \"#utility.yul\":1093:1099   */\n  dup1\n    /* \"#utility.yul\":1101:1107   */\n  0x00\n    /* \"#utility.yul\":1109:1115   */\n  dup1\n    /* \"#utility.yul\":1158:1161   */\n  0x80\n    /* \"#utility.yul\":1146:1155   */\n  dup6\n    /* \"#utility.yul\":1137:1144   */\n  dup8\n    /* \"#utility.yul\":1133:1156   */\n  sub\n    /* \"#utility.yul\":1129:1162   */\n  slt\n    /* \"#utility.yul\":1126:1246   */\n  iszero\n  tag_45\n  jumpi\n    /* \"#utility.yul\":1165:1244   */\n  tag_46\n  tag_47\n  jump\t// in\ntag_46:\n    /* \"#utility.yul\":1126:1246   */\ntag_45:\n    /* \"#utility.yul\":1306:1307   */\n  0x00\n    /* \"#utility.yul\":1295:1304   */\n  dup6\n    /* \"#utility.yul\":1291:1308   */\n  add\n    /* \"#utility.yul\":1285:1309   */\n  mload\n    /* \"#utility.yul\":1336:1354   */\n  0xffffffffffffffff\n    /* \"#utility.yul\":1328:1334   */\n  dup2\n    /* \"#utility.yul\":1325:1355   */\n  gt\n    /* \"#utility.yul\":1322:1439   */\n  iszero\n  tag_48\n  jumpi\n    /* \"#utility.yul\":1358:1437   */\n  tag_49\n  tag_50\n  jump\t// in\ntag_49:\n    /* \"#utility.yul\":1322:1439   */\ntag_48:\n    /* \"#utility.yul\":1463:1537   */\n  tag_51\n    /* \"#utility.yul\":1529:1536   */\n  dup8\n    /* \"#utility.yul\":1520:1526   */\n  dup3\n    /* \"#utility.yul\":1509:1518   */\n  dup9\n    /* \"#utility.yul\":1505:1527   */\n  add\n    /* \"#utility.yul\":1463:1537   */\n  tag_34\n  jump\t// in\ntag_51:\n    /* \"#utility.yul\":1453:1537   */\n  swap5\n  pop\n    /* \"#utility.yul\":1256:1547   */\n  pop\n    /* \"#utility.yul\":1607:1609   */\n  0x20\n    /* \"#utility.yul\":1596:1605   */\n  dup6\n    /* \"#utility.yul\":1592:1610   */\n  add\n    /* \"#utility.yul\":1586:1611   */\n  mload\n    /* \"#utility.yul\":1638:1656   */\n  0xffffffffffffffff\n    /* \"#utility.yul\":1630:1636   */\n  dup2\n    /* \"#utility.yul\":1627:1657   */\n  gt\n    /* \"#utility.yul\":1624:1741   */\n  iszero\n  tag_52\n  jumpi\n    /* \"#utility.yul\":1660:1739   */\n  tag_53\n  tag_50\n  jump\t// in\ntag_53:\n    /* \"#utility.yul\":1624:1741   */\ntag_52:\n    /* \"#utility.yul\":1765:1839   */\n  tag_54\n    /* \"#utility.yul\":1831:1838   */\n  dup8\n    /* \"#utility.yul\":1822:1828   */\n  dup3\n    /* \"#utility.yul\":1811:1820   */\n  dup9\n    /* \"#utility.yul\":1807:1829   */\n  add\n    /* \"#utility.yul\":1765:1839   */\n  tag_34\n  jump\t// in\ntag_54:\n    /* \"#utility.yul\":1755:1839   */\n  swap4\n  pop\n    /* \"#utility.yul\":1557:1849   */\n  pop\n    /* \"#utility.yul\":1888:1890   */\n  0x40\n    /* \"#utility.yul\":1914:1978   */\n  tag_55\n    /* \"#utility.yul\":1970:1977   */\n  dup8\n    /* \"#utility.yul\":1961:1967   */\n  dup3\n    /* \"#utility.yul\":1950:1959   */\n  dup9\n    /* \"#utility.yul\":1946:1968   */\n  add\n    /* \"#utility.yul\":1914:1978   */\n  tag_40\n  jump\t// in\ntag_55:\n    /* \"#utility.yul\":1904:1978   */\n  swap3\n  pop\n    /* \"#utility.yul\":1859:1988   */\n  pop\n    /* \"#utility.yul\":2048:2050   */\n  0x60\n    /* \"#utility.yul\":2037:2046   */\n  dup6\n    /* \"#utility.yul\":2033:2051   */\n  add\n    /* \"#utility.yul\":2027:2052   */\n  mload\n    /* \"#utility.yul\":2079:2097   */\n  0xffffffffffffffff\n    /* \"#utility.yul\":2071:2077   */\n  dup2\n    /* \"#utility.yul\":2068:2098   */\n  gt\n    /* \"#utility.yul\":2065:2182   */\n  iszero\n  tag_56\n  jumpi\n    /* \"#utility.yul\":2101:2180   */\n  tag_57\n  tag_50\n  jump\t// in\ntag_57:\n    /* \"#utility.yul\":2065:2182   */\ntag_56:\n    /* \"#utility.yul\":2206:2280   */\n  tag_58\n    /* \"#utility.yul\":2272:2279   */\n  dup8\n    /* \"#utility.yul\":2263:2269   */\n  dup3\n    /* \"#utility.yul\":2252:2261   */\n  dup9\n    /* \"#utility.yul\":2248:2270   */\n  add\n    /* \"#utility.yul\":2206:2280   */\n  tag_34\n  jump\t// in\ntag_58:\n    /* \"#utility.yul\":2196:2280   */\n  swap2\n  pop\n    /* \"#utility.yul\":1998:2290   */\n  pop\n    /* \"#utility.yul\":958:2297   */\n  swap3\n  swap6\n  swap2\n  swap5\n  pop\n  swap3\n  pop\n  jump\t// out\n    /* \"#utility.yul\":2303:2432   */\ntag_28:\n    /* \"#utility.yul\":2337:2343   */\n  0x00\n    /* \"#utility.yul\":2364:2384   */\n  tag_60\n  tag_61\n  jump\t// in\ntag_60:\n    /* \"#utility.yul\":2354:2384   */\n  swap1\n  pop\n    /* \"#utility.yul\":2393:2426   */\n  tag_62\n    /* \"#utility.yul\":2421:2425   */\n  dup3\n    /* \"#utility.yul\":2413:2419   */\n  dup3\n    /* \"#utility.yul\":2393:2426   */\n  tag_63\n  jump\t// in\ntag_62:\n    /* \"#utility.yul\":2303:2432   */\n  swap2\n  swap1\n  pop\n  jump\t// out\n    /* \"#utility.yul\":2438:2513   */\ntag_61:\n    /* \"#utility.yul\":2471:2477   */\n  0x00\n    /* \"#utility.yul\":2504:2506   */\n  0x40\n    /* \"#utility.yul\":2498:2507   */\n  mload\n    /* \"#utility.yul\":2488:2507   */\n  swap1\n  pop\n    /* \"#utility.yul\":2438:2513   */\n  swap1\n  jump\t// out\n    /* \"#utility.yul\":2519:2827   */\ntag_27:\n    /* \"#utility.yul\":2581:2585   */\n  0x00\n    /* \"#utility.yul\":2671:2689   */\n  0xffffffffffffffff\n    /* \"#utility.yul\":2663:2669   */\n  dup3\n    /* \"#utility.yul\":2660:2690   */\n  gt\n    /* \"#utility.yul\":2657:2713   */\n  iszero\n  tag_66\n  jumpi\n    /* \"#utility.yul\":2693:2711   */\n  tag_67\n  tag_68\n  jump\t// in\ntag_67:\n    /* \"#utility.yul\":2657:2713   */\ntag_66:\n    /* \"#utility.yul\":2731:2760   */\n  tag_69\n    /* \"#utility.yul\":2753:2759   */\n  dup3\n    /* \"#utility.yul\":2731:2760   */\n  tag_70\n  jump\t// in\ntag_69:\n    /* \"#utility.yul\":2723:2760   */\n  swap1\n  pop\n    /* \"#utility.yul\":2815:2819   */\n  0x20\n    /* \"#utility.yul\":2809:2813   */\n  dup2\n    /* \"#utility.yul\":2805:2820   */\n  add\n    /* \"#utility.yul\":2797:2820   */\n  swap1\n  pop\n    /* \"#utility.yul\":2519:2827   */\n  swap2\n  swap1\n  pop\n  jump\t// out\n    /* \"#utility.yul\":2833:2910   */\ntag_71:\n    /* \"#utility.yul\":2870:2877   */\n  0x00\n    /* \"#utility.yul\":2899:2904   */\n  dup2\n    /* \"#utility.yul\":2888:2904   */\n  swap1\n  pop\n    /* \"#utility.yul\":2833:2910   */\n  swap2\n  swap1\n  pop\n  jump\t// out\n    /* \"#utility.yul\":2916:3223   */\ntag_33:\n    /* \"#utility.yul\":2984:2985   */\n  0x00\n    /* \"#utility.yul\":2994:3107   */\ntag_74:\n    /* \"#utility.yul\":3008:3014   */\n  dup4\n    /* \"#utility.yul\":3005:3006   */\n  dup2\n    /* \"#utility.yul\":3002:3015   */\n  lt\n    /* \"#utility.yul\":2994:3107   */\n  iszero\n  tag_76\n  jumpi\n    /* \"#utility.yul\":3093:3094   */\n  dup1\n    /* \"#utility.yul\":3088:3091   */\n  dup3\n    /* \"#utility.yul\":3084:3095   */\n  add\n    /* \"#utility.yul\":3078:3096   */\n  mload\n    /* \"#utility.yul\":3074:3075   */\n  dup2\n    /* \"#utility.yul\":3069:3072   */\n  dup5\n    /* \"#utility.yul\":3065:3076   */\n  add\n    /* \"#utility.yul\":3058:3097   */\n  mstore\n    /* \"#utility.yul\":3030:3032   */\n  0x20\n    /* \"#utility.yul\":3027:3028   */\n  dup2\n    /* \"#utility.yul\":3023:3033   */\n  add\n    /* \"#utility.yul\":3018:3033   */\n  swap1\n  pop\n    /* \"#utility.yul\":2994:3107   */\n  jump(tag_74)\ntag_76:\n    /* \"#utility.yul\":3125:3131   */\n  dup4\n    /* \"#utility.yul\":3122:3123   */\n  dup2\n    /* \"#utility.yul\":3119:3132   */\n  gt\n    /* \"#utility.yul\":3116:3217   */\n  iszero\n  tag_77\n  jumpi\n    /* \"#utility.yul\":3205:3206   */\n  0x00\n    /* \"#utility.yul\":3196:3202   */\n  dup5\n    /* \"#utility.yul\":3191:3194   */\n  dup5\n    /* \"#utility.yul\":3187:3203   */\n  add\n    /* \"#utility.yul\":3180:3207   */\n  mstore\n    /* \"#utility.yul\":3116:3217   */\ntag_77:\n    /* \"#utility.yul\":2965:3223   */\n  pop\n    /* \"#utility.yul\":2916:3223   */\n  pop\n  pop\n  pop\n  jump\t// out\n    /* \"#utility.yul\":3229:3549   */\ntag_12:\n    /* \"#utility.yul\":3273:3279   */\n  0x00\n    /* \"#utility.yul\":3310:3311   */\n  0x02\n    /* \"#utility.yul\":3304:3308   */\n  dup3\n    /* \"#utility.yul\":3300:3312   */\n  div\n    /* \"#utility.yul\":3290:3312   */\n  swap1\n  pop\n    /* \"#utility.yul\":3357:3358   */\n  0x01\n    /* \"#utility.yul\":3351:3355   */\n  dup3\n    /* \"#utility.yul\":3347:3359   */\n  and\n    /* \"#utility.yul\":3378:3396   */\n  dup1\n    /* \"#utility.yul\":3368:3449   */\n  tag_79\n  jumpi\n    /* \"#utility.yul\":3434:3438   */\n  0x7f\n    /* \"#utility.yul\":3426:3432   */\n  dup3\n    /* \"#utility.yul\":3422:3439   */\n  and\n    /* \"#utility.yul\":3412:3439   */\n  swap2\n  pop\n    /* \"#utility.yul\":3368:3449   */\ntag_79:\n    /* \"#utility.yul\":3496:3498   */\n  0x20\n    /* \"#utility.yul\":3488:3494   */\n  dup3\n    /* \"#utility.yul\":3485:3499   */\n  lt\n    /* \"#utility.yul\":3465:3483   */\n  dup2\n    /* \"#utility.yul\":3462:3500   */\n  eq\n    /* \"#utility.yul\":3459:3543   */\n  iszero\n  tag_80\n  jumpi\n    /* \"#utility.yul\":3515:3533   */\n  tag_81\n  tag_82\n  jump\t// in\ntag_81:\n    /* \"#utility.yul\":3459:3543   */\ntag_80:\n    /* \"#utility.yul\":3280:3549   */\n  pop\n    /* \"#utility.yul\":3229:3549   */\n  swap2\n  swap1\n  pop\n  jump\t// out\n    /* \"#utility.yul\":3555:3836   */\ntag_63:\n    /* \"#utility.yul\":3638:3665   */\n  tag_84\n    /* \"#utility.yul\":3660:3664   */\n  dup3\n    /* \"#utility.yul\":3638:3665   */\n  tag_70\n  jump\t// in\ntag_84:\n    /* \"#utility.yul\":3630:3636   */\n  dup2\n    /* \"#utility.yul\":3626:3666   */\n  add\n    /* \"#utility.yul\":3768:3774   */\n  dup2\n    /* \"#utility.yul\":3756:3766   */\n  dup2\n    /* \"#utility.yul\":3753:3775   */\n  lt\n    /* \"#utility.yul\":3732:3750   */\n  0xffffffffffffffff\n    /* \"#utility.yul\":3720:3730   */\n  dup3\n    /* \"#utility.yul\":3717:3751   */\n  gt\n    /* \"#utility.yul\":3714:3776   */\n  or\n    /* \"#utility.yul\":3711:3799   */\n  iszero\n  tag_85\n  jumpi\n    /* \"#utility.yul\":3779:3797   */\n  tag_86\n  tag_68\n  jump\t// in\ntag_86:\n    /* \"#utility.yul\":3711:3799   */\ntag_85:\n    /* \"#utility.yul\":3819:3829   */\n  dup1\n    /* \"#utility.yul\":3815:3817   */\n  0x40\n    /* \"#utility.yul\":3808:3830   */\n  mstore\n    /* \"#utility.yul\":3598:3836   */\n  pop\n    /* \"#utility.yul\":3555:3836   */\n  pop\n  pop\n  jump\t// out\n    /* \"#utility.yul\":3842:4022   */\ntag_82:\n    /* \"#utility.yul\":3890:3967   */\n  0x4e487b7100000000000000000000000000000000000000000000000000000000\n    /* \"#utility.yul\":3887:3888   */\n  0x00\n    /* \"#utility.yul\":3880:3968   */\n  mstore\n    /* \"#utility.yul\":3987:3991   */\n  0x22\n    /* \"#utility.yul\":3984:3985   */\n  0x04\n    /* \"#utility.yul\":3977:3992   */\n  mstore\n    /* \"#utility.yul\":4011:4015   */\n  0x24\n    /* \"#utility.yul\":4008:4009   */\n  0x00\n    /* \"#utility.yul\":4001:4016   */\n  revert\n    /* \"#utility.yul\":4028:4208   */\ntag_68:\n    /* \"#utility.yul\":4076:4153   */\n  0x4e487b7100000000000000000000000000000000000000000000000000000000\n    /* \"#utility.yul\":4073:4074   */\n  0x00\n    /* \"#utility.yul\":4066:4154   */\n  mstore\n    /* \"#utility.yul\":4173:4177   */\n  0x41\n    /* \"#utility.yul\":4170:4171   */\n  0x04\n    /* \"#utility.yul\":4163:4178   */\n  mstore\n    /* \"#utility.yul\":4197:4201   */\n  0x24\n    /* \"#utility.yul\":4194:4195   */\n  0x00\n    /* \"#utility.yul\":4187:4202   */\n  revert\n    /* \"#utility.yul\":4214:4331   */\ntag_38:\n    /* \"#utility.yul\":4323:4324   */\n  0x00\n    /* \"#utility.yul\":4320:4321   */\n  dup1\n    /* \"#utility.yul\":4313:4325   */\n  revert\n    /* \"#utility.yul\":4337:4454   */\ntag_31:\n    /* \"#utility.yul\":4446:4447   */\n  0x00\n    /* \"#utility.yul\":4443:4444   */\n  dup1\n    /* \"#utility.yul\":4436:4448   */\n  revert\n    /* \"#utility.yul\":4460:4577   */\ntag_50:\n    /* \"#utility.yul\":4569:4570   */\n  0x00\n    /* \"#utility.yul\":4566:4567   */\n  dup1\n    /* \"#utility.yul\":4559:4571   */\n  revert\n    /* \"#utility.yul\":4583:4700   */\ntag_47:\n    /* \"#utility.yul\":4692:4693   */\n  0x00\n    /* \"#utility.yul\":4689:4690   */\n  dup1\n    /* \"#utility.yul\":4682:4694   */\n  revert\n    /* \"#utility.yul\":4706:4808   */\ntag_70:\n    /* \"#utility.yul\":4747:4753   */\n  0x00\n    /* \"#utility.yul\":4798:4800   */\n  0x1f\n    /* \"#utility.yul\":4794:4801   */\n  not\n    /* \"#utility.yul\":4789:4791   */\n  0x1f\n    /* \"#utility.yul\":4782:4787   */\n  dup4\n    /* \"#utility.yul\":4778:4792   */\n  add\n    /* \"#utility.yul\":4774:4802   */\n  and\n    /* \"#utility.yul\":4764:4802   */\n  swap1\n  pop\n    /* \"#utility.yul\":4706:4808   */\n  swap2\n  swap1\n  pop\n  jump\t// out\n    /* \"#utility.yul\":4814:4936   */\ntag_43:\n    /* \"#utility.yul\":4887:4911   */\n  tag_95\n    /* \"#utility.yul\":4905:4910   */\n  dup2\n    /* \"#utility.yul\":4887:4911   */\n  tag_71\n  jump\t// in\ntag_95:\n    /* \"#utility.yul\":4880:4885   */\n  dup2\n    /* \"#utility.yul\":4877:4912   */\n  eq\n    /* \"#utility.yul\":4867:4930   */\n  tag_96\n  jumpi\n    /* \"#utility.yul\":4926:4927   */\n  0x00\n    /* \"#utility.yul\":4923:4924   */\n  dup1\n    /* \"#utility.yul\":4916:4928   */\n  revert\n    /* \"#utility.yul\":4867:4930   */\ntag_96:\n    /* \"#utility.yul\":4814:4936   */\n  pop\n  jump\t// out\n    /* \"contracts/artifacts/MyProfile.sol\":2:2053  contract Identity {\r... */\ntag_10:\n  dataSize(sub_0)\n  dup1\n  dataOffset(sub_0)\n  0x00\n  codecopy\n  0x00\n  return\nstop\n\nsub_0: assembly {\n        /* \"contracts/artifacts/MyProfile.sol\":2:2053  contract Identity {\r... */\n      mstore(0x40, 0x80)\n      callvalue\n      dup1\n      iszero\n      tag_1\n      jumpi\n      0x00\n      dup1\n      revert\n    tag_1:\n      pop\n      jumpi(tag_2, lt(calldatasize, 0x04))\n      shr(0xe0, calldataload(0x00))\n      dup1\n      0x81f539ff\n      eq\n      tag_3\n      jumpi\n      dup1\n      0x9f0010fc\n      eq\n      tag_4\n      jumpi\n      dup1\n      0x9f999da3\n      eq\n      tag_5\n      jumpi\n    tag_2:\n      0x00\n      dup1\n      revert\n        /* \"contracts/artifacts/MyProfile.sol\":1910:2050  function getPersonalInfo() public view authorizeUser(UserType.Personal) returns (PersonalInfo memory) {\r... */\n    tag_3:\n      tag_6\n      tag_7\n      jump\t// in\n    tag_6:\n      mload(0x40)\n      tag_8\n      swap2\n      swap1\n      tag_9\n      jump\t// in\n    tag_8:\n      mload(0x40)\n      dup1\n      swap2\n      sub\n      swap1\n      return\n        /* \"contracts/artifacts/MyProfile.sol\":1496:1762  function registerUser(UserType userType, address user) public onlyOwner {\r... */\n    tag_4:\n      tag_10\n      0x04\n      dup1\n      calldatasize\n      sub\n      dup2\n      add\n      swap1\n      tag_11\n      swap2\n      swap1\n      tag_12\n      jump\t// in\n    tag_11:\n      tag_13\n      jump\t// in\n    tag_10:\n      stop\n        /* \"contracts/artifacts/MyProfile.sol\":1774:1902  function getBasicInfo() public view authorizeUser(UserType.Basic) returns (BasicInfo memory) {\r... */\n    tag_5:\n      tag_14\n      tag_15\n      jump\t// in\n    tag_14:\n      mload(0x40)\n      tag_16\n      swap2\n      swap1\n      tag_17\n      jump\t// in\n    tag_16:\n      mload(0x40)\n      dup1\n      swap2\n      sub\n      swap1\n      return\n        /* \"contracts/artifacts/MyProfile.sol\":1910:2050  function getPersonalInfo() public view authorizeUser(UserType.Personal) returns (PersonalInfo memory) {\r... */\n    tag_7:\n        /* \"contracts/artifacts/MyProfile.sol\":1991:2010  PersonalInfo memory */\n      tag_18\n      tag_19\n      jump\t// in\n    tag_18:\n        /* \"contracts/artifacts/MyProfile.sol\":1963:1980  UserType.Personal */\n      0x01\n        /* \"contracts/artifacts/MyProfile.sol\":1008:1013  owner */\n      0x04\n      0x00\n      swap1\n      sload\n      swap1\n      0x0100\n      exp\n      swap1\n      div\n      0xffffffffffffffffffffffffffffffffffffffff\n      and\n        /* \"contracts/artifacts/MyProfile.sol\":994:1013  msg.sender == owner */\n      0xffffffffffffffffffffffffffffffffffffffff\n      and\n        /* \"contracts/artifacts/MyProfile.sol\":994:1004  msg.sender */\n      caller\n        /* \"contracts/artifacts/MyProfile.sol\":994:1013  msg.sender == owner */\n      0xffffffffffffffffffffffffffffffffffffffff\n      and\n      eq\n        /* \"contracts/artifacts/MyProfile.sol\":994:1042  msg.sender == owner || personalUsers[msg.sender] */\n      dup1\n      tag_21\n      jumpi\n      pop\n        /* \"contracts/artifacts/MyProfile.sol\":1017:1030  personalUsers */\n      0x06\n        /* \"contracts/artifacts/MyProfile.sol\":1017:1042  personalUsers[msg.sender] */\n      0x00\n        /* \"contracts/artifacts/MyProfile.sol\":1031:1041  msg.sender */\n      caller\n        /* \"contracts/artifacts/MyProfile.sol\":1017:1042  personalUsers[msg.sender] */\n      0xffffffffffffffffffffffffffffffffffffffff\n      and\n      0xffffffffffffffffffffffffffffffffffffffff\n      and\n      dup2\n      mstore\n      0x20\n      add\n      swap1\n      dup2\n      mstore\n      0x20\n      add\n      0x00\n      keccak256\n      0x00\n      swap1\n      sload\n      swap1\n      0x0100\n      exp\n      swap1\n      div\n      0xff\n      and\n        /* \"contracts/artifacts/MyProfile.sol\":994:1042  msg.sender == owner || personalUsers[msg.sender] */\n    tag_21:\n        /* \"contracts/artifacts/MyProfile.sol\":990:1242  if (msg.sender == owner || personalUsers[msg.sender]) {\r... */\n      iszero\n      tag_22\n      jumpi\n        /* \"contracts/artifacts/MyProfile.sol\":2030:2042  personalInfo */\n      0x02\n        /* \"contracts/artifacts/MyProfile.sol\":2023:2042  return personalInfo */\n      mload(0x40)\n      dup1\n      0x40\n      add\n      0x40\n      mstore\n      swap1\n      dup2\n      0x00\n      dup3\n      add\n      sload\n      dup2\n      mstore\n      0x20\n      add\n      0x01\n      dup3\n      add\n      dup1\n      sload\n      tag_24\n      swap1\n      tag_25\n      jump\t// in\n    tag_24:\n      dup1\n      0x1f\n      add\n      0x20\n      dup1\n      swap2\n      div\n      mul\n      0x20\n      add\n      mload(0x40)\n      swap1\n      dup2\n      add\n      0x40\n      mstore\n      dup1\n      swap3\n      swap2\n      swap1\n      dup2\n      dup2\n      mstore\n      0x20\n      add\n      dup3\n      dup1\n      sload\n      tag_26\n      swap1\n      tag_25\n      jump\t// in\n    tag_26:\n      dup1\n      iszero\n      tag_27\n      jumpi\n      dup1\n      0x1f\n      lt\n      tag_28\n      jumpi\n      0x0100\n      dup1\n      dup4\n      sload\n      div\n      mul\n      dup4\n      mstore\n      swap2\n      0x20\n      add\n      swap2\n      jump(tag_27)\n    tag_28:\n      dup3\n      add\n      swap2\n      swap1\n      0x00\n      mstore\n      keccak256(0x00, 0x20)\n      swap1\n    tag_29:\n      dup2\n      sload\n      dup2\n      mstore\n      swap1\n      0x01\n      add\n      swap1\n      0x20\n      add\n      dup1\n      dup4\n      gt\n      tag_29\n      jumpi\n      dup3\n      swap1\n      sub\n      0x1f\n      and\n      dup3\n      add\n      swap2\n    tag_27:\n      pop\n      pop\n      pop\n      pop\n      pop\n      dup2\n      mstore\n      pop\n      pop\n      swap2\n      pop\n        /* \"contracts/artifacts/MyProfile.sol\":990:1242  if (msg.sender == owner || personalUsers[msg.sender]) {\r... */\n      jump(tag_30)\n    tag_22:\n        /* \"contracts/artifacts/MyProfile.sol\":1094:1108  UserType.Basic */\n      0x00\n        /* \"contracts/artifacts/MyProfile.sol\":1082:1108  userType == UserType.Basic */\n      0x01\n      dup2\n      gt\n      iszero\n      tag_31\n      jumpi\n      tag_32\n      tag_33\n      jump\t// in\n    tag_32:\n    tag_31:\n        /* \"contracts/artifacts/MyProfile.sol\":1082:1090  userType */\n      dup2\n        /* \"contracts/artifacts/MyProfile.sol\":1082:1108  userType == UserType.Basic */\n      0x01\n      dup2\n      gt\n      iszero\n      tag_34\n      jumpi\n      tag_35\n      tag_33\n      jump\t// in\n    tag_35:\n    tag_34:\n      eq\n        /* \"contracts/artifacts/MyProfile.sol\":1082:1134  userType == UserType.Basic && basicUsers[msg.sender] */\n      dup1\n      iszero\n      tag_36\n      jumpi\n      pop\n        /* \"contracts/artifacts/MyProfile.sol\":1112:1122  basicUsers */\n      0x05\n        /* \"contracts/artifacts/MyProfile.sol\":1112:1134  basicUsers[msg.sender] */\n      0x00\n        /* \"contracts/artifacts/MyProfile.sol\":1123:1133  msg.sender */\n      caller\n        /* \"contracts/artifacts/MyProfile.sol\":1112:1134  basicUsers[msg.sender] */\n      0xffffffffffffffffffffffffffffffffffffffff\n      and\n      0xffffffffffffffffffffffffffffffffffffffff\n      and\n      dup2\n      mstore\n      0x20\n      add\n      swap1\n      dup2\n      mstore\n      0x20\n      add\n      0x00\n      keccak256\n      0x00\n      swap1\n      sload\n      swap1\n      0x0100\n      exp\n      swap1\n      div\n      0xff\n      and\n        /* \"contracts/artifacts/MyProfile.sol\":1082:1134  userType == UserType.Basic && basicUsers[msg.sender] */\n    tag_36:\n        /* \"contracts/artifacts/MyProfile.sol\":1078:1242  if (userType == UserType.Basic && basicUsers[msg.sender]) {\r... */\n      iszero\n      tag_37\n      jumpi\n        /* \"contracts/artifacts/MyProfile.sol\":2030:2042  personalInfo */\n      0x02\n        /* \"contracts/artifacts/MyProfile.sol\":2023:2042  return personalInfo */\n      mload(0x40)\n      dup1\n      0x40\n      add\n      0x40\n      mstore\n      swap1\n      dup2\n      0x00\n      dup3\n      add\n      sload\n      dup2\n      mstore\n      0x20\n      add\n      0x01\n      dup3\n      add\n      dup1\n      sload\n      tag_39\n      swap1\n      tag_25\n      jump\t// in\n    tag_39:\n      dup1\n      0x1f\n      add\n      0x20\n      dup1\n      swap2\n      div\n      mul\n      0x20\n      add\n      mload(0x40)\n      swap1\n      dup2\n      add\n      0x40\n      mstore\n      dup1\n      swap3\n      swap2\n      swap1\n      dup2\n      dup2\n      mstore\n      0x20\n      add\n      dup3\n      dup1\n      sload\n      tag_40\n      swap1\n      tag_25\n      jump\t// in\n    tag_40:\n      dup1\n      iszero\n      tag_41\n      jumpi\n      dup1\n      0x1f\n      lt\n      tag_42\n      jumpi\n      0x0100\n      dup1\n      dup4\n      sload\n      div\n      mul\n      dup4\n      mstore\n      swap2\n      0x20\n      add\n      swap2\n      jump(tag_41)\n    tag_42:\n      dup3\n      add\n      swap2\n      swap1\n      0x00\n      mstore\n      keccak256(0x00, 0x20)\n      swap1\n    tag_43:\n      dup2\n      sload\n      dup2\n      mstore\n      swap1\n      0x01\n      add\n      swap1\n      0x20\n      add\n      dup1\n      dup4\n      gt\n      tag_43\n      jumpi\n      dup3\n      swap1\n      sub\n      0x1f\n      and\n      dup3\n      add\n      swap2\n    tag_41:\n      pop\n      pop\n      pop\n      pop\n      pop\n      dup2\n      mstore\n      pop\n      pop\n      swap2\n      pop\n        /* \"contracts/artifacts/MyProfile.sol\":1078:1242  if (userType == UserType.Basic && basicUsers[msg.sender]) {\r... */\n      jump(tag_44)\n    tag_37:\n        /* \"contracts/artifacts/MyProfile.sol\":1209:1219  msg.sender */\n      caller\n        /* \"contracts/artifacts/MyProfile.sol\":1221:1229  userType */\n      dup2\n        /* \"contracts/artifacts/MyProfile.sol\":1192:1230  UserUnauthorized(msg.sender, userType) */\n      mload(0x40)\n      0x301d703b00000000000000000000000000000000000000000000000000000000\n      dup2\n      mstore\n      0x04\n      add\n      tag_45\n      swap3\n      swap2\n      swap1\n      tag_46\n      jump\t// in\n    tag_45:\n      mload(0x40)\n      dup1\n      swap2\n      sub\n      swap1\n      revert\n        /* \"contracts/artifacts/MyProfile.sol\":1078:1242  if (userType == UserType.Basic && basicUsers[msg.sender]) {\r... */\n    tag_44:\n        /* \"contracts/artifacts/MyProfile.sol\":990:1242  if (msg.sender == owner || personalUsers[msg.sender]) {\r... */\n    tag_30:\n        /* \"contracts/artifacts/MyProfile.sol\":1910:2050  function getPersonalInfo() public view authorizeUser(UserType.Personal) returns (PersonalInfo memory) {\r... */\n      pop\n      swap1\n      jump\t// out\n        /* \"contracts/artifacts/MyProfile.sol\":1496:1762  function registerUser(UserType userType, address user) public onlyOwner {\r... */\n    tag_13:\n        /* \"contracts/artifacts/MyProfile.sol\":1372:1377  owner */\n      0x04\n      0x00\n      swap1\n      sload\n      swap1\n      0x0100\n      exp\n      swap1\n      div\n      0xffffffffffffffffffffffffffffffffffffffff\n      and\n        /* \"contracts/artifacts/MyProfile.sol\":1358:1377  msg.sender == owner */\n      0xffffffffffffffffffffffffffffffffffffffff\n      and\n        /* \"contracts/artifacts/MyProfile.sol\":1358:1368  msg.sender */\n      caller\n        /* \"contracts/artifacts/MyProfile.sol\":1358:1377  msg.sender == owner */\n      0xffffffffffffffffffffffffffffffffffffffff\n      and\n      eq\n        /* \"contracts/artifacts/MyProfile.sol\":1350:1412  require(msg.sender == owner, \"Only owner can authorize users\") */\n      tag_48\n      jumpi\n      mload(0x40)\n      0x08c379a000000000000000000000000000000000000000000000000000000000\n      dup2\n      mstore\n      0x04\n      add\n      tag_49\n      swap1\n      tag_50\n      jump\t// in\n    tag_49:\n      mload(0x40)\n      dup1\n      swap2\n      sub\n      swap1\n      revert\n    tag_48:\n        /* \"contracts/artifacts/MyProfile.sol\":1595:1609  UserType.Basic */\n      0x00\n        /* \"contracts/artifacts/MyProfile.sol\":1583:1609  userType == UserType.Basic */\n      0x01\n      dup2\n      gt\n      iszero\n      tag_52\n      jumpi\n      tag_53\n      tag_33\n      jump\t// in\n    tag_53:\n    tag_52:\n        /* \"contracts/artifacts/MyProfile.sol\":1583:1591  userType */\n      dup3\n        /* \"contracts/artifacts/MyProfile.sol\":1583:1609  userType == UserType.Basic */\n      0x01\n      dup2\n      gt\n      iszero\n      tag_54\n      jumpi\n      tag_55\n      tag_33\n      jump\t// in\n    tag_55:\n    tag_54:\n      eq\n        /* \"contracts/artifacts/MyProfile.sol\":1579:1755  if (userType == UserType.Basic) {\r... */\n      iszero\n      tag_56\n      jumpi\n        /* \"contracts/artifacts/MyProfile.sol\":1645:1649  true */\n      0x01\n        /* \"contracts/artifacts/MyProfile.sol\":1626:1636  basicUsers */\n      0x05\n        /* \"contracts/artifacts/MyProfile.sol\":1626:1642  basicUsers[user] */\n      0x00\n        /* \"contracts/artifacts/MyProfile.sol\":1637:1641  user */\n      dup4\n        /* \"contracts/artifacts/MyProfile.sol\":1626:1642  basicUsers[user] */\n      0xffffffffffffffffffffffffffffffffffffffff\n      and\n      0xffffffffffffffffffffffffffffffffffffffff\n      and\n      dup2\n      mstore\n      0x20\n      add\n      swap1\n      dup2\n      mstore\n      0x20\n      add\n      0x00\n      keccak256\n      0x00\n        /* \"contracts/artifacts/MyProfile.sol\":1626:1649  basicUsers[user] = true */\n      0x0100\n      exp\n      dup2\n      sload\n      dup2\n      0xff\n      mul\n      not\n      and\n      swap1\n      dup4\n      iszero\n      iszero\n      mul\n      or\n      swap1\n      sstore\n      pop\n        /* \"contracts/artifacts/MyProfile.sol\":1579:1755  if (userType == UserType.Basic) {\r... */\n      jump(tag_57)\n    tag_56:\n        /* \"contracts/artifacts/MyProfile.sol\":1683:1700  UserType.Personal */\n      0x01\n        /* \"contracts/artifacts/MyProfile.sol\":1671:1700  userType == UserType.Personal */\n      dup1\n      dup2\n      gt\n      iszero\n      tag_58\n      jumpi\n      tag_59\n      tag_33\n      jump\t// in\n    tag_59:\n    tag_58:\n        /* \"contracts/artifacts/MyProfile.sol\":1671:1679  userType */\n      dup3\n        /* \"contracts/artifacts/MyProfile.sol\":1671:1700  userType == UserType.Personal */\n      0x01\n      dup2\n      gt\n      iszero\n      tag_60\n      jumpi\n      tag_61\n      tag_33\n      jump\t// in\n    tag_61:\n    tag_60:\n      eq\n        /* \"contracts/artifacts/MyProfile.sol\":1667:1755  if (userType == UserType.Personal) {\r... */\n      iszero\n      tag_62\n      jumpi\n        /* \"contracts/artifacts/MyProfile.sol\":1739:1743  true */\n      0x01\n        /* \"contracts/artifacts/MyProfile.sol\":1717:1730  personalUsers */\n      0x06\n        /* \"contracts/artifacts/MyProfile.sol\":1717:1736  personalUsers[user] */\n      0x00\n        /* \"contracts/artifacts/MyProfile.sol\":1731:1735  user */\n      dup4\n        /* \"contracts/artifacts/MyProfile.sol\":1717:1736  personalUsers[user] */\n      0xffffffffffffffffffffffffffffffffffffffff\n      and\n      0xffffffffffffffffffffffffffffffffffffffff\n      and\n      dup2\n      mstore\n      0x20\n      add\n      swap1\n      dup2\n      mstore\n      0x20\n      add\n      0x00\n      keccak256\n      0x00\n        /* \"contracts/artifacts/MyProfile.sol\":1717:1743  personalUsers[user] = true */\n      0x0100\n      exp\n      dup2\n      sload\n      dup2\n      0xff\n      mul\n      not\n      and\n      swap1\n      dup4\n      iszero\n      iszero\n      mul\n      or\n      swap1\n      sstore\n      pop\n        /* \"contracts/artifacts/MyProfile.sol\":1667:1755  if (userType == UserType.Personal) {\r... */\n    tag_62:\n        /* \"contracts/artifacts/MyProfile.sol\":1579:1755  if (userType == UserType.Basic) {\r... */\n    tag_57:\n        /* \"contracts/artifacts/MyProfile.sol\":1496:1762  function registerUser(UserType userType, address user) public onlyOwner {\r... */\n      pop\n      pop\n      jump\t// out\n        /* \"contracts/artifacts/MyProfile.sol\":1774:1902  function getBasicInfo() public view authorizeUser(UserType.Basic) returns (BasicInfo memory) {\r... */\n    tag_15:\n        /* \"contracts/artifacts/MyProfile.sol\":1849:1865  BasicInfo memory */\n      tag_63\n      tag_64\n      jump\t// in\n    tag_63:\n        /* \"contracts/artifacts/MyProfile.sol\":1824:1838  UserType.Basic */\n      0x00\n        /* \"contracts/artifacts/MyProfile.sol\":1008:1013  owner */\n      0x04\n      0x00\n      swap1\n      sload\n      swap1\n      0x0100\n      exp\n      swap1\n      div\n      0xffffffffffffffffffffffffffffffffffffffff\n      and\n        /* \"contracts/artifacts/MyProfile.sol\":994:1013  msg.sender == owner */\n      0xffffffffffffffffffffffffffffffffffffffff\n      and\n        /* \"contracts/artifacts/MyProfile.sol\":994:1004  msg.sender */\n      caller\n        /* \"contracts/artifacts/MyProfile.sol\":994:1013  msg.sender == owner */\n      0xffffffffffffffffffffffffffffffffffffffff\n      and\n      eq\n        /* \"contracts/artifacts/MyProfile.sol\":994:1042  msg.sender == owner || personalUsers[msg.sender] */\n      dup1\n      tag_66\n      jumpi\n      pop\n        /* \"contracts/artifacts/MyProfile.sol\":1017:1030  personalUsers */\n      0x06\n        /* \"contracts/artifacts/MyProfile.sol\":1017:1042  personalUsers[msg.sender] */\n      0x00\n        /* \"contracts/artifacts/MyProfile.sol\":1031:1041  msg.sender */\n      caller\n        /* \"contracts/artifacts/MyProfile.sol\":1017:1042  personalUsers[msg.sender] */\n      0xffffffffffffffffffffffffffffffffffffffff\n      and\n      0xffffffffffffffffffffffffffffffffffffffff\n      and\n      dup2\n      mstore\n      0x20\n      add\n      swap1\n      dup2\n      mstore\n      0x20\n      add\n      0x00\n      keccak256\n      0x00\n      swap1\n      sload\n      swap1\n      0x0100\n      exp\n      swap1\n      div\n      0xff\n      and\n        /* \"contracts/artifacts/MyProfile.sol\":994:1042  msg.sender == owner || personalUsers[msg.sender] */\n    tag_66:\n        /* \"contracts/artifacts/MyProfile.sol\":990:1242  if (msg.sender == owner || personalUsers[msg.sender]) {\r... */\n      iszero\n      tag_67\n      jumpi\n        /* \"contracts/artifacts/MyProfile.sol\":1885:1894  basicInfo */\n      0x00\n        /* \"contracts/artifacts/MyProfile.sol\":1878:1894  return basicInfo */\n      mload(0x40)\n      dup1\n      0x40\n      add\n      0x40\n      mstore\n      swap1\n      dup2\n      0x00\n      dup3\n      add\n      dup1\n      sload\n      tag_69\n      swap1\n      tag_25\n      jump\t// in\n    tag_69:\n      dup1\n      0x1f\n      add\n      0x20\n      dup1\n      swap2\n      div\n      mul\n      0x20\n      add\n      mload(0x40)\n      swap1\n      dup2\n      add\n      0x40\n      mstore\n      dup1\n      swap3\n      swap2\n      swap1\n      dup2\n      dup2\n      mstore\n      0x20\n      add\n      dup3\n      dup1\n      sload\n      tag_70\n      swap1\n      tag_25\n      jump\t// in\n    tag_70:\n      dup1\n      iszero\n      tag_71\n      jumpi\n      dup1\n      0x1f\n      lt\n      tag_72\n      jumpi\n      0x0100\n      dup1\n      dup4\n      sload\n      div\n      mul\n      dup4\n      mstore\n      swap2\n      0x20\n      add\n      swap2\n      jump(tag_71)\n    tag_72:\n      dup3\n      add\n      swap2\n      swap1\n      0x00\n      mstore\n      keccak256(0x00, 0x20)\n      swap1\n    tag_73:\n      dup2\n      sload\n      dup2\n      mstore\n      swap1\n      0x01\n      add\n      swap1\n      0x20\n      add\n      dup1\n      dup4\n      gt\n      tag_73\n      jumpi\n      dup3\n      swap1\n      sub\n      0x1f\n      and\n      dup3\n      add\n      swap2\n    tag_71:\n      pop\n      pop\n      pop\n      pop\n      pop\n      dup2\n      mstore\n      0x20\n      add\n      0x01\n      dup3\n      add\n      dup1\n      sload\n      tag_74\n      swap1\n      tag_25\n      jump\t// in\n    tag_74:\n      dup1\n      0x1f\n      add\n      0x20\n      dup1\n      swap2\n      div\n      mul\n      0x20\n      add\n      mload(0x40)\n      swap1\n      dup2\n      add\n      0x40\n      mstore\n      dup1\n      swap3\n      swap2\n      swap1\n      dup2\n      dup2\n      mstore\n      0x20\n      add\n      dup3\n      dup1\n      sload\n      tag_75\n      swap1\n      tag_25\n      jump\t// in\n    tag_75:\n      dup1\n      iszero\n      tag_76\n      jumpi\n      dup1\n      0x1f\n      lt\n      tag_77\n      jumpi\n      0x0100\n      dup1\n      dup4\n      sload\n      div\n      mul\n      dup4\n      mstore\n      swap2\n      0x20\n      add\n      swap2\n      jump(tag_76)\n    tag_77:\n      dup3\n      add\n      swap2\n      swap1\n      0x00\n      mstore\n      keccak256(0x00, 0x20)\n      swap1\n    tag_78:\n      dup2\n      sload\n      dup2\n      mstore\n      swap1\n      0x01\n      add\n      swap1\n      0x20\n      add\n      dup1\n      dup4\n      gt\n      tag_78\n      jumpi\n      dup3\n      swap1\n      sub\n      0x1f\n      and\n      dup3\n      add\n      swap2\n    tag_76:\n      pop\n      pop\n      pop\n      pop\n      pop\n      dup2\n      mstore\n      pop\n      pop\n      swap2\n      pop\n        /* \"contracts/artifacts/MyProfile.sol\":990:1242  if (msg.sender == owner || personalUsers[msg.sender]) {\r... */\n      jump(tag_79)\n    tag_67:\n        /* \"contracts/artifacts/MyProfile.sol\":1094:1108  UserType.Basic */\n      0x00\n        /* \"contracts/artifacts/MyProfile.sol\":1082:1108  userType == UserType.Basic */\n      0x01\n      dup2\n      gt\n      iszero\n      tag_80\n      jumpi\n      tag_81\n      tag_33\n      jump\t// in\n    tag_81:\n    tag_80:\n        /* \"contracts/artifacts/MyProfile.sol\":1082:1090  userType */\n      dup2\n        /* \"contracts/artifacts/MyProfile.sol\":1082:1108  userType == UserType.Basic */\n      0x01\n      dup2\n      gt\n      iszero\n      tag_82\n      jumpi\n      tag_83\n      tag_33\n      jump\t// in\n    tag_83:\n    tag_82:\n      eq\n        /* \"contracts/artifacts/MyProfile.sol\":1082:1134  userType == UserType.Basic && basicUsers[msg.sender] */\n      dup1\n      iszero\n      tag_84\n      jumpi\n      pop\n        /* \"contracts/artifacts/MyProfile.sol\":1112:1122  basicUsers */\n      0x05\n        /* \"contracts/artifacts/MyProfile.sol\":1112:1134  basicUsers[msg.sender] */\n      0x00\n        /* \"contracts/artifacts/MyProfile.sol\":1123:1133  msg.sender */\n      caller\n        /* \"contracts/artifacts/MyProfile.sol\":1112:1134  basicUsers[msg.sender] */\n      0xffffffffffffffffffffffffffffffffffffffff\n      and\n      0xffffffffffffffffffffffffffffffffffffffff\n      and\n      dup2\n      mstore\n      0x20\n      add\n      swap1\n      dup2\n      mstore\n      0x20\n      add\n      0x00\n      keccak256\n      0x00\n      swap1\n      sload\n      swap1\n      0x0100\n      exp\n      swap1\n      div\n      0xff\n      and\n        /* \"contracts/artifacts/MyProfile.sol\":1082:1134  userType == UserType.Basic && basicUsers[msg.sender] */\n    tag_84:\n        /* \"contracts/artifacts/MyProfile.sol\":1078:1242  if (userType == UserType.Basic && basicUsers[msg.sender]) {\r... */\n      iszero\n      tag_85\n      jumpi\n        /* \"contracts/artifacts/MyProfile.sol\":1885:1894  basicInfo */\n      0x00\n        /* \"contracts/artifacts/MyProfile.sol\":1878:1894  return basicInfo */\n      mload(0x40)\n      dup1\n      0x40\n      add\n      0x40\n      mstore\n      swap1\n      dup2\n      0x00\n      dup3\n      add\n      dup1\n      sload\n      tag_87\n      swap1\n      tag_25\n      jump\t// in\n    tag_87:\n      dup1\n      0x1f\n      add\n      0x20\n      dup1\n      swap2\n      div\n      mul\n      0x20\n      add\n      mload(0x40)\n      swap1\n      dup2\n      add\n      0x40\n      mstore\n      dup1\n      swap3\n      swap2\n      swap1\n      dup2\n      dup2\n      mstore\n      0x20\n      add\n      dup3\n      dup1\n      sload\n      tag_88\n      swap1\n      tag_25\n      jump\t// in\n    tag_88:\n      dup1\n      iszero\n      tag_89\n      jumpi\n      dup1\n      0x1f\n      lt\n      tag_90\n      jumpi\n      0x0100\n      dup1\n      dup4\n      sload\n      div\n      mul\n      dup4\n      mstore\n      swap2\n      0x20\n      add\n      swap2\n      jump(tag_89)\n    tag_90:\n      dup3\n      add\n      swap2\n      swap1\n      0x00\n      mstore\n      keccak256(0x00, 0x20)\n      swap1\n    tag_91:\n      dup2\n      sload\n      dup2\n      mstore\n      swap1\n      0x01\n      add\n      swap1\n      0x20\n      add\n      dup1\n      dup4\n      gt\n      tag_91\n      jumpi\n      dup3\n      swap1\n      sub\n      0x1f\n      and\n      dup3\n      add\n      swap2\n    tag_89:\n      pop\n      pop\n      pop\n      pop\n      pop\n      dup2\n      mstore\n      0x20\n      add\n      0x01\n      dup3\n      add\n      dup1\n      sload\n      tag_92\n      swap1\n      tag_25\n      jump\t// in\n    tag_92:\n      dup1\n      0x1f\n      add\n      0x20\n      dup1\n      swap2\n      div\n      mul\n      0x20\n      add\n      mload(0x40)\n      swap1\n      dup2\n      add\n      0x40\n      mstore\n      dup1\n      swap3\n      swap2\n      swap1\n      dup2\n      dup2\n      mstore\n      0x20\n      add\n      dup3\n      dup1\n      sload\n      tag_93\n      swap1\n      tag_25\n      jump\t// in\n    tag_93:\n      dup1\n      iszero\n      tag_94\n      jumpi\n      dup1\n      0x1f\n      lt\n      tag_95\n      jumpi\n      0x0100\n      dup1\n      dup4\n      sload\n      div\n      mul\n      dup4\n      mstore\n      swap2\n      0x20\n      add\n      swap2\n      jump(tag_94)\n    tag_95:\n      dup3\n      add\n      swap2\n      swap1\n      0x00\n      mstore\n      keccak256(0x00, 0x20)\n      swap1\n    tag_96:\n      dup2\n      sload\n      dup2\n      mstore\n      swap1\n      0x01\n      add\n      swap1\n      0x20\n      add\n      dup1\n      dup4\n      gt\n      tag_96\n      jumpi\n      dup3\n      swap1\n      sub\n      0x1f\n      and\n      dup3\n      add\n      swap2\n    tag_94:\n      pop\n      pop\n      pop\n      pop\n      pop\n      dup2\n      mstore\n      pop\n      pop\n      swap2\n      pop\n        /* \"contracts/artifacts/MyProfile.sol\":1078:1242  if (userType == UserType.Basic && basicUsers[msg.sender]) {\r... */\n      jump(tag_97)\n    tag_85:\n        /* \"contracts/artifacts/MyProfile.sol\":1209:1219  msg.sender */\n      caller\n        /* \"contracts/artifacts/MyProfile.sol\":1221:1229  userType */\n      dup2\n        /* \"contracts/artifacts/MyProfile.sol\":1192:1230  UserUnauthorized(msg.sender, userType) */\n      mload(0x40)\n      0x301d703b00000000000000000000000000000000000000000000000000000000\n      dup2\n      mstore\n      0x04\n      add\n      tag_98\n      swap3\n      swap2\n      swap1\n      tag_46\n      jump\t// in\n    tag_98:\n      mload(0x40)\n      dup1\n      swap2\n      sub\n      swap1\n      revert\n        /* \"contracts/artifacts/MyProfile.sol\":1078:1242  if (userType == UserType.Basic && basicUsers[msg.sender]) {\r... */\n    tag_97:\n        /* \"contracts/artifacts/MyProfile.sol\":990:1242  if (msg.sender == owner || personalUsers[msg.sender]) {\r... */\n    tag_79:\n        /* \"contracts/artifacts/MyProfile.sol\":1774:1902  function getBasicInfo() public view authorizeUser(UserType.Basic) returns (BasicInfo memory) {\r... */\n      pop\n      swap1\n      jump\t// out\n    tag_19:\n      mload(0x40)\n      dup1\n      0x40\n      add\n      0x40\n      mstore\n      dup1\n      0x00\n      dup2\n      mstore\n      0x20\n      add\n      0x60\n      dup2\n      mstore\n      pop\n      swap1\n      jump\t// out\n    tag_64:\n      mload(0x40)\n      dup1\n      0x40\n      add\n      0x40\n      mstore\n      dup1\n      0x60\n      dup2\n      mstore\n      0x20\n      add\n      0x60\n      dup2\n      mstore\n      pop\n      swap1\n      jump\t// out\n        /* \"#utility.yul\":7:146   */\n    tag_100:\n        /* \"#utility.yul\":53:58   */\n      0x00\n        /* \"#utility.yul\":91:97   */\n      dup2\n        /* \"#utility.yul\":78:98   */\n      calldataload\n        /* \"#utility.yul\":69:98   */\n      swap1\n      pop\n        /* \"#utility.yul\":107:140   */\n      tag_102\n        /* \"#utility.yul\":134:139   */\n      dup2\n        /* \"#utility.yul\":107:140   */\n      tag_103\n      jump\t// in\n    tag_102:\n        /* \"#utility.yul\":7:146   */\n      swap3\n      swap2\n      pop\n      pop\n      jump\t// out\n        /* \"#utility.yul\":152:313   */\n    tag_104:\n        /* \"#utility.yul\":209:214   */\n      0x00\n        /* \"#utility.yul\":247:253   */\n      dup2\n        /* \"#utility.yul\":234:254   */\n      calldataload\n        /* \"#utility.yul\":225:254   */\n      swap1\n      pop\n        /* \"#utility.yul\":263:307   */\n      tag_106\n        /* \"#utility.yul\":301:306   */\n      dup2\n        /* \"#utility.yul\":263:307   */\n      tag_107\n      jump\t// in\n    tag_106:\n        /* \"#utility.yul\":152:313   */\n      swap3\n      swap2\n      pop\n      pop\n      jump\t// out\n        /* \"#utility.yul\":319:815   */\n    tag_12:\n        /* \"#utility.yul\":398:404   */\n      0x00\n        /* \"#utility.yul\":406:412   */\n      dup1\n        /* \"#utility.yul\":455:457   */\n      0x40\n        /* \"#utility.yul\":443:452   */\n      dup4\n        /* \"#utility.yul\":434:441   */\n      dup6\n        /* \"#utility.yul\":430:453   */\n      sub\n        /* \"#utility.yul\":426:458   */\n      slt\n        /* \"#utility.yul\":423:542   */\n      iszero\n      tag_109\n      jumpi\n        /* \"#utility.yul\":461:540   */\n      tag_110\n      tag_111\n      jump\t// in\n    tag_110:\n        /* \"#utility.yul\":423:542   */\n    tag_109:\n        /* \"#utility.yul\":581:582   */\n      0x00\n        /* \"#utility.yul\":606:670   */\n      tag_112\n        /* \"#utility.yul\":662:669   */\n      dup6\n        /* \"#utility.yul\":653:659   */\n      dup3\n        /* \"#utility.yul\":642:651   */\n      dup7\n        /* \"#utility.yul\":638:660   */\n      add\n        /* \"#utility.yul\":606:670   */\n      tag_104\n      jump\t// in\n    tag_112:\n        /* \"#utility.yul\":596:670   */\n      swap3\n      pop\n        /* \"#utility.yul\":552:680   */\n      pop\n        /* \"#utility.yul\":719:721   */\n      0x20\n        /* \"#utility.yul\":745:798   */\n      tag_113\n        /* \"#utility.yul\":790:797   */\n      dup6\n        /* \"#utility.yul\":781:787   */\n      dup3\n        /* \"#utility.yul\":770:779   */\n      dup7\n        /* \"#utility.yul\":766:788   */\n      add\n        /* \"#utility.yul\":745:798   */\n      tag_100\n      jump\t// in\n    tag_113:\n        /* \"#utility.yul\":735:798   */\n      swap2\n      pop\n        /* \"#utility.yul\":690:808   */\n      pop\n        /* \"#utility.yul\":319:815   */\n      swap3\n      pop\n      swap3\n      swap1\n      pop\n      jump\t// out\n        /* \"#utility.yul\":821:939   */\n    tag_114:\n        /* \"#utility.yul\":908:932   */\n      tag_116\n        /* \"#utility.yul\":926:931   */\n      dup2\n        /* \"#utility.yul\":908:932   */\n      tag_117\n      jump\t// in\n    tag_116:\n        /* \"#utility.yul\":903:906   */\n      dup3\n        /* \"#utility.yul\":896:933   */\n      mstore\n        /* \"#utility.yul\":821:939   */\n      pop\n      pop\n      jump\t// out\n        /* \"#utility.yul\":945:1094   */\n    tag_118:\n        /* \"#utility.yul\":1041:1087   */\n      tag_120\n        /* \"#utility.yul\":1081:1086   */\n      dup2\n        /* \"#utility.yul\":1041:1087   */\n      tag_121\n      jump\t// in\n    tag_120:\n        /* \"#utility.yul\":1036:1039   */\n      dup3\n        /* \"#utility.yul\":1029:1088   */\n      mstore\n        /* \"#utility.yul\":945:1094   */\n      pop\n      pop\n      jump\t// out\n        /* \"#utility.yul\":1100:1444   */\n    tag_122:\n        /* \"#utility.yul\":1178:1181   */\n      0x00\n        /* \"#utility.yul\":1206:1245   */\n      tag_124\n        /* \"#utility.yul\":1239:1244   */\n      dup3\n        /* \"#utility.yul\":1206:1245   */\n      tag_125\n      jump\t// in\n    tag_124:\n        /* \"#utility.yul\":1261:1322   */\n      tag_126\n        /* \"#utility.yul\":1315:1321   */\n      dup2\n        /* \"#utility.yul\":1310:1313   */\n      dup6\n        /* \"#utility.yul\":1261:1322   */\n      tag_127\n      jump\t// in\n    tag_126:\n        /* \"#utility.yul\":1254:1322   */\n      swap4\n      pop\n        /* \"#utility.yul\":1331:1383   */\n      tag_128\n        /* \"#utility.yul\":1376:1382   */\n      dup2\n        /* \"#utility.yul\":1371:1374   */\n      dup6\n        /* \"#utility.yul\":1364:1368   */\n      0x20\n        /* \"#utility.yul\":1357:1362   */\n      dup7\n        /* \"#utility.yul\":1353:1369   */\n      add\n        /* \"#utility.yul\":1331:1383   */\n      tag_129\n      jump\t// in\n    tag_128:\n        /* \"#utility.yul\":1408:1437   */\n      tag_130\n        /* \"#utility.yul\":1430:1436   */\n      dup2\n        /* \"#utility.yul\":1408:1437   */\n      tag_131\n      jump\t// in\n    tag_130:\n        /* \"#utility.yul\":1403:1406   */\n      dup5\n        /* \"#utility.yul\":1399:1438   */\n      add\n        /* \"#utility.yul\":1392:1438   */\n      swap2\n      pop\n        /* \"#utility.yul\":1182:1444   */\n      pop\n        /* \"#utility.yul\":1100:1444   */\n      swap3\n      swap2\n      pop\n      pop\n      jump\t// out\n        /* \"#utility.yul\":1450:1816   */\n    tag_132:\n        /* \"#utility.yul\":1592:1595   */\n      0x00\n        /* \"#utility.yul\":1613:1680   */\n      tag_134\n        /* \"#utility.yul\":1677:1679   */\n      0x1e\n        /* \"#utility.yul\":1672:1675   */\n      dup4\n        /* \"#utility.yul\":1613:1680   */\n      tag_135\n      jump\t// in\n    tag_134:\n        /* \"#utility.yul\":1606:1680   */\n      swap2\n      pop\n        /* \"#utility.yul\":1689:1782   */\n      tag_136\n        /* \"#utility.yul\":1778:1781   */\n      dup3\n        /* \"#utility.yul\":1689:1782   */\n      tag_137\n      jump\t// in\n    tag_136:\n        /* \"#utility.yul\":1807:1809   */\n      0x20\n        /* \"#utility.yul\":1802:1805   */\n      dup3\n        /* \"#utility.yul\":1798:1810   */\n      add\n        /* \"#utility.yul\":1791:1810   */\n      swap1\n      pop\n        /* \"#utility.yul\":1450:1816   */\n      swap2\n      swap1\n      pop\n      jump\t// out\n        /* \"#utility.yul\":1884:2560   */\n    tag_138:\n        /* \"#utility.yul\":2001:2004   */\n      0x00\n        /* \"#utility.yul\":2037:2041   */\n      0x40\n        /* \"#utility.yul\":2032:2035   */\n      dup4\n        /* \"#utility.yul\":2028:2042   */\n      add\n        /* \"#utility.yul\":2124:2128   */\n      0x00\n        /* \"#utility.yul\":2117:2122   */\n      dup4\n        /* \"#utility.yul\":2113:2129   */\n      add\n        /* \"#utility.yul\":2107:2130   */\n      mload\n        /* \"#utility.yul\":2177:2180   */\n      dup5\n        /* \"#utility.yul\":2171:2175   */\n      dup3\n        /* \"#utility.yul\":2167:2181   */\n      sub\n        /* \"#utility.yul\":2160:2164   */\n      0x00\n        /* \"#utility.yul\":2155:2158   */\n      dup7\n        /* \"#utility.yul\":2151:2165   */\n      add\n        /* \"#utility.yul\":2144:2182   */\n      mstore\n        /* \"#utility.yul\":2203:2276   */\n      tag_140\n        /* \"#utility.yul\":2271:2275   */\n      dup3\n        /* \"#utility.yul\":2257:2269   */\n      dup3\n        /* \"#utility.yul\":2203:2276   */\n      tag_122\n      jump\t// in\n    tag_140:\n        /* \"#utility.yul\":2195:2276   */\n      swap2\n      pop\n        /* \"#utility.yul\":2052:2287   */\n      pop\n        /* \"#utility.yul\":2370:2374   */\n      0x20\n        /* \"#utility.yul\":2363:2368   */\n      dup4\n        /* \"#utility.yul\":2359:2375   */\n      add\n        /* \"#utility.yul\":2353:2376   */\n      mload\n        /* \"#utility.yul\":2423:2426   */\n      dup5\n        /* \"#utility.yul\":2417:2421   */\n      dup3\n        /* \"#utility.yul\":2413:2427   */\n      sub\n        /* \"#utility.yul\":2406:2410   */\n      0x20\n        /* \"#utility.yul\":2401:2404   */\n      dup7\n        /* \"#utility.yul\":2397:2411   */\n      add\n        /* \"#utility.yul\":2390:2428   */\n      mstore\n        /* \"#utility.yul\":2449:2522   */\n      tag_141\n        /* \"#utility.yul\":2517:2521   */\n      dup3\n        /* \"#utility.yul\":2503:2515   */\n      dup3\n        /* \"#utility.yul\":2449:2522   */\n      tag_122\n      jump\t// in\n    tag_141:\n        /* \"#utility.yul\":2441:2522   */\n      swap2\n      pop\n        /* \"#utility.yul\":2297:2533   */\n      pop\n        /* \"#utility.yul\":2550:2554   */\n      dup1\n        /* \"#utility.yul\":2543:2554   */\n      swap2\n      pop\n        /* \"#utility.yul\":2006:2560   */\n      pop\n        /* \"#utility.yul\":1884:2560   */\n      swap3\n      swap2\n      pop\n      pop\n      jump\t// out\n        /* \"#utility.yul\":2634:3252   */\n    tag_142:\n        /* \"#utility.yul\":2759:2762   */\n      0x00\n        /* \"#utility.yul\":2795:2799   */\n      0x40\n        /* \"#utility.yul\":2790:2793   */\n      dup4\n        /* \"#utility.yul\":2786:2800   */\n      add\n        /* \"#utility.yul\":2884:2888   */\n      0x00\n        /* \"#utility.yul\":2877:2882   */\n      dup4\n        /* \"#utility.yul\":2873:2889   */\n      add\n        /* \"#utility.yul\":2867:2890   */\n      mload\n        /* \"#utility.yul\":2903:2966   */\n      tag_144\n        /* \"#utility.yul\":2960:2964   */\n      0x00\n        /* \"#utility.yul\":2955:2958   */\n      dup7\n        /* \"#utility.yul\":2951:2965   */\n      add\n        /* \"#utility.yul\":2937:2949   */\n      dup3\n        /* \"#utility.yul\":2903:2966   */\n      tag_145\n      jump\t// in\n    tag_144:\n        /* \"#utility.yul\":2810:2976   */\n      pop\n        /* \"#utility.yul\":3062:3066   */\n      0x20\n        /* \"#utility.yul\":3055:3060   */\n      dup4\n        /* \"#utility.yul\":3051:3067   */\n      add\n        /* \"#utility.yul\":3045:3068   */\n      mload\n        /* \"#utility.yul\":3115:3118   */\n      dup5\n        /* \"#utility.yul\":3109:3113   */\n      dup3\n        /* \"#utility.yul\":3105:3119   */\n      sub\n        /* \"#utility.yul\":3098:3102   */\n      0x20\n        /* \"#utility.yul\":3093:3096   */\n      dup7\n        /* \"#utility.yul\":3089:3103   */\n      add\n        /* \"#utility.yul\":3082:3120   */\n      mstore\n        /* \"#utility.yul\":3141:3214   */\n      tag_146\n        /* \"#utility.yul\":3209:3213   */\n      dup3\n        /* \"#utility.yul\":3195:3207   */\n      dup3\n        /* \"#utility.yul\":3141:3214   */\n      tag_122\n      jump\t// in\n    tag_146:\n        /* \"#utility.yul\":3133:3214   */\n      swap2\n      pop\n        /* \"#utility.yul\":2986:3225   */\n      pop\n        /* \"#utility.yul\":3242:3246   */\n      dup1\n        /* \"#utility.yul\":3235:3246   */\n      swap2\n      pop\n        /* \"#utility.yul\":2764:3252   */\n      pop\n        /* \"#utility.yul\":2634:3252   */\n      swap3\n      swap2\n      pop\n      pop\n      jump\t// out\n        /* \"#utility.yul\":3258:3366   */\n    tag_145:\n        /* \"#utility.yul\":3335:3359   */\n      tag_148\n        /* \"#utility.yul\":3353:3358   */\n      dup2\n        /* \"#utility.yul\":3335:3359   */\n      tag_149\n      jump\t// in\n    tag_148:\n        /* \"#utility.yul\":3330:3333   */\n      dup3\n        /* \"#utility.yul\":3323:3360   */\n      mstore\n        /* \"#utility.yul\":3258:3366   */\n      pop\n      pop\n      jump\t// out\n        /* \"#utility.yul\":3372:3722   */\n    tag_46:\n        /* \"#utility.yul\":3502:3506   */\n      0x00\n        /* \"#utility.yul\":3540:3542   */\n      0x40\n        /* \"#utility.yul\":3529:3538   */\n      dup3\n        /* \"#utility.yul\":3525:3543   */\n      add\n        /* \"#utility.yul\":3517:3543   */\n      swap1\n      pop\n        /* \"#utility.yul\":3553:3624   */\n      tag_151\n        /* \"#utility.yul\":3621:3622   */\n      0x00\n        /* \"#utility.yul\":3610:3619   */\n      dup4\n        /* \"#utility.yul\":3606:3623   */\n      add\n        /* \"#utility.yul\":3597:3603   */\n      dup6\n        /* \"#utility.yul\":3553:3624   */\n      tag_114\n      jump\t// in\n    tag_151:\n        /* \"#utility.yul\":3634:3715   */\n      tag_152\n        /* \"#utility.yul\":3711:3713   */\n      0x20\n        /* \"#utility.yul\":3700:3709   */\n      dup4\n        /* \"#utility.yul\":3696:3714   */\n      add\n        /* \"#utility.yul\":3687:3693   */\n      dup5\n        /* \"#utility.yul\":3634:3715   */\n      tag_118\n      jump\t// in\n    tag_152:\n        /* \"#utility.yul\":3372:3722   */\n      swap4\n      swap3\n      pop\n      pop\n      pop\n      jump\t// out\n        /* \"#utility.yul\":3728:4147   */\n    tag_50:\n        /* \"#utility.yul\":3894:3898   */\n      0x00\n        /* \"#utility.yul\":3932:3934   */\n      0x20\n        /* \"#utility.yul\":3921:3930   */\n      dup3\n        /* \"#utility.yul\":3917:3935   */\n      add\n        /* \"#utility.yul\":3909:3935   */\n      swap1\n      pop\n        /* \"#utility.yul\":3981:3990   */\n      dup2\n        /* \"#utility.yul\":3975:3979   */\n      dup2\n        /* \"#utility.yul\":3971:3991   */\n      sub\n        /* \"#utility.yul\":3967:3968   */\n      0x00\n        /* \"#utility.yul\":3956:3965   */\n      dup4\n        /* \"#utility.yul\":3952:3969   */\n      add\n        /* \"#utility.yul\":3945:3992   */\n      mstore\n        /* \"#utility.yul\":4009:4140   */\n      tag_154\n        /* \"#utility.yul\":4135:4139   */\n      dup2\n        /* \"#utility.yul\":4009:4140   */\n      tag_132\n      jump\t// in\n    tag_154:\n        /* \"#utility.yul\":4001:4140   */\n      swap1\n      pop\n        /* \"#utility.yul\":3728:4147   */\n      swap2\n      swap1\n      pop\n      jump\t// out\n        /* \"#utility.yul\":4153:4522   */\n    tag_17:\n        /* \"#utility.yul\":4294:4298   */\n      0x00\n        /* \"#utility.yul\":4332:4334   */\n      0x20\n        /* \"#utility.yul\":4321:4330   */\n      dup3\n        /* \"#utility.yul\":4317:4335   */\n      add\n        /* \"#utility.yul\":4309:4335   */\n      swap1\n      pop\n        /* \"#utility.yul\":4381:4390   */\n      dup2\n        /* \"#utility.yul\":4375:4379   */\n      dup2\n        /* \"#utility.yul\":4371:4391   */\n      sub\n        /* \"#utility.yul\":4367:4368   */\n      0x00\n        /* \"#utility.yul\":4356:4365   */\n      dup4\n        /* \"#utility.yul\":4352:4369   */\n      add\n        /* \"#utility.yul\":4345:4392   */\n      mstore\n        /* \"#utility.yul\":4409:4515   */\n      tag_156\n        /* \"#utility.yul\":4510:4514   */\n      dup2\n        /* \"#utility.yul\":4501:4507   */\n      dup5\n        /* \"#utility.yul\":4409:4515   */\n      tag_138\n      jump\t// in\n    tag_156:\n        /* \"#utility.yul\":4401:4515   */\n      swap1\n      pop\n        /* \"#utility.yul\":4153:4522   */\n      swap3\n      swap2\n      pop\n      pop\n      jump\t// out\n        /* \"#utility.yul\":4528:4913   */\n    tag_9:\n        /* \"#utility.yul\":4677:4681   */\n      0x00\n        /* \"#utility.yul\":4715:4717   */\n      0x20\n        /* \"#utility.yul\":4704:4713   */\n      dup3\n        /* \"#utility.yul\":4700:4718   */\n      add\n        /* \"#utility.yul\":4692:4718   */\n      swap1\n      pop\n        /* \"#utility.yul\":4764:4773   */\n      dup2\n        /* \"#utility.yul\":4758:4762   */\n      dup2\n        /* \"#utility.yul\":4754:4774   */\n      sub\n        /* \"#utility.yul\":4750:4751   */\n      0x00\n        /* \"#utility.yul\":4739:4748   */\n      dup4\n        /* \"#utility.yul\":4735:4752   */\n      add\n        /* \"#utility.yul\":4728:4775   */\n      mstore\n        /* \"#utility.yul\":4792:4906   */\n      tag_158\n        /* \"#utility.yul\":4901:4905   */\n      dup2\n        /* \"#utility.yul\":4892:4898   */\n      dup5\n        /* \"#utility.yul\":4792:4906   */\n      tag_142\n      jump\t// in\n    tag_158:\n        /* \"#utility.yul\":4784:4906   */\n      swap1\n      pop\n        /* \"#utility.yul\":4528:4913   */\n      swap3\n      swap2\n      pop\n      pop\n      jump\t// out\n        /* \"#utility.yul\":5000:5099   */\n    tag_125:\n        /* \"#utility.yul\":5052:5058   */\n      0x00\n        /* \"#utility.yul\":5086:5091   */\n      dup2\n        /* \"#utility.yul\":5080:5092   */\n      mload\n        /* \"#utility.yul\":5070:5092   */\n      swap1\n      pop\n        /* \"#utility.yul\":5000:5099   */\n      swap2\n      swap1\n      pop\n      jump\t// out\n        /* \"#utility.yul\":5105:5264   */\n    tag_127:\n        /* \"#utility.yul\":5179:5190   */\n      0x00\n        /* \"#utility.yul\":5213:5219   */\n      dup3\n        /* \"#utility.yul\":5208:5211   */\n      dup3\n        /* \"#utility.yul\":5201:5220   */\n      mstore\n        /* \"#utility.yul\":5253:5257   */\n      0x20\n        /* \"#utility.yul\":5248:5251   */\n      dup3\n        /* \"#utility.yul\":5244:5258   */\n      add\n        /* \"#utility.yul\":5229:5258   */\n      swap1\n      pop\n        /* \"#utility.yul\":5105:5264   */\n      swap3\n      swap2\n      pop\n      pop\n      jump\t// out\n        /* \"#utility.yul\":5270:5439   */\n    tag_135:\n        /* \"#utility.yul\":5354:5365   */\n      0x00\n        /* \"#utility.yul\":5388:5394   */\n      dup3\n        /* \"#utility.yul\":5383:5386   */\n      dup3\n        /* \"#utility.yul\":5376:5395   */\n      mstore\n        /* \"#utility.yul\":5428:5432   */\n      0x20\n        /* \"#utility.yul\":5423:5426   */\n      dup3\n        /* \"#utility.yul\":5419:5433   */\n      add\n        /* \"#utility.yul\":5404:5433   */\n      swap1\n      pop\n        /* \"#utility.yul\":5270:5439   */\n      swap3\n      swap2\n      pop\n      pop\n      jump\t// out\n        /* \"#utility.yul\":5445:5541   */\n    tag_117:\n        /* \"#utility.yul\":5482:5489   */\n      0x00\n        /* \"#utility.yul\":5511:5535   */\n      tag_165\n        /* \"#utility.yul\":5529:5534   */\n      dup3\n        /* \"#utility.yul\":5511:5535   */\n      tag_166\n      jump\t// in\n    tag_165:\n        /* \"#utility.yul\":5500:5535   */\n      swap1\n      pop\n        /* \"#utility.yul\":5445:5541   */\n      swap2\n      swap1\n      pop\n      jump\t// out\n        /* \"#utility.yul\":5547:5680   */\n    tag_167:\n        /* \"#utility.yul\":5595:5602   */\n      0x00\n        /* \"#utility.yul\":5624:5629   */\n      dup2\n        /* \"#utility.yul\":5613:5629   */\n      swap1\n      pop\n        /* \"#utility.yul\":5630:5674   */\n      tag_169\n        /* \"#utility.yul\":5668:5673   */\n      dup3\n        /* \"#utility.yul\":5630:5674   */\n      tag_170\n      jump\t// in\n    tag_169:\n        /* \"#utility.yul\":5547:5680   */\n      swap2\n      swap1\n      pop\n      jump\t// out\n        /* \"#utility.yul\":5686:5812   */\n    tag_166:\n        /* \"#utility.yul\":5723:5730   */\n      0x00\n        /* \"#utility.yul\":5763:5805   */\n      0xffffffffffffffffffffffffffffffffffffffff\n        /* \"#utility.yul\":5756:5761   */\n      dup3\n        /* \"#utility.yul\":5752:5806   */\n      and\n        /* \"#utility.yul\":5741:5806   */\n      swap1\n      pop\n        /* \"#utility.yul\":5686:5812   */\n      swap2\n      swap1\n      pop\n      jump\t// out\n        /* \"#utility.yul\":5818:5895   */\n    tag_149:\n        /* \"#utility.yul\":5855:5862   */\n      0x00\n        /* \"#utility.yul\":5884:5889   */\n      dup2\n        /* \"#utility.yul\":5873:5889   */\n      swap1\n      pop\n        /* \"#utility.yul\":5818:5895   */\n      swap2\n      swap1\n      pop\n      jump\t// out\n        /* \"#utility.yul\":5901:6034   */\n    tag_121:\n        /* \"#utility.yul\":5960:5969   */\n      0x00\n        /* \"#utility.yul\":5993:6028   */\n      tag_174\n        /* \"#utility.yul\":6022:6027   */\n      dup3\n        /* \"#utility.yul\":5993:6028   */\n      tag_167\n      jump\t// in\n    tag_174:\n        /* \"#utility.yul\":5980:6028   */\n      swap1\n      pop\n        /* \"#utility.yul\":5901:6034   */\n      swap2\n      swap1\n      pop\n      jump\t// out\n        /* \"#utility.yul\":6040:6347   */\n    tag_129:\n        /* \"#utility.yul\":6108:6109   */\n      0x00\n        /* \"#utility.yul\":6118:6231   */\n    tag_176:\n        /* \"#utility.yul\":6132:6138   */\n      dup4\n        /* \"#utility.yul\":6129:6130   */\n      dup2\n        /* \"#utility.yul\":6126:6139   */\n      lt\n        /* \"#utility.yul\":6118:6231   */\n      iszero\n      tag_178\n      jumpi\n        /* \"#utility.yul\":6217:6218   */\n      dup1\n        /* \"#utility.yul\":6212:6215   */\n      dup3\n        /* \"#utility.yul\":6208:6219   */\n      add\n        /* \"#utility.yul\":6202:6220   */\n      mload\n        /* \"#utility.yul\":6198:6199   */\n      dup2\n        /* \"#utility.yul\":6193:6196   */\n      dup5\n        /* \"#utility.yul\":6189:6200   */\n      add\n        /* \"#utility.yul\":6182:6221   */\n      mstore\n        /* \"#utility.yul\":6154:6156   */\n      0x20\n        /* \"#utility.yul\":6151:6152   */\n      dup2\n        /* \"#utility.yul\":6147:6157   */\n      add\n        /* \"#utility.yul\":6142:6157   */\n      swap1\n      pop\n        /* \"#utility.yul\":6118:6231   */\n      jump(tag_176)\n    tag_178:\n        /* \"#utility.yul\":6249:6255   */\n      dup4\n        /* \"#utility.yul\":6246:6247   */\n      dup2\n        /* \"#utility.yul\":6243:6256   */\n      gt\n        /* \"#utility.yul\":6240:6341   */\n      iszero\n      tag_179\n      jumpi\n        /* \"#utility.yul\":6329:6330   */\n      0x00\n        /* \"#utility.yul\":6320:6326   */\n      dup5\n        /* \"#utility.yul\":6315:6318   */\n      dup5\n        /* \"#utility.yul\":6311:6327   */\n      add\n        /* \"#utility.yul\":6304:6331   */\n      mstore\n        /* \"#utility.yul\":6240:6341   */\n    tag_179:\n        /* \"#utility.yul\":6089:6347   */\n      pop\n        /* \"#utility.yul\":6040:6347   */\n      pop\n      pop\n      pop\n      jump\t// out\n        /* \"#utility.yul\":6353:6673   */\n    tag_25:\n        /* \"#utility.yul\":6397:6403   */\n      0x00\n        /* \"#utility.yul\":6434:6435   */\n      0x02\n        /* \"#utility.yul\":6428:6432   */\n      dup3\n        /* \"#utility.yul\":6424:6436   */\n      div\n        /* \"#utility.yul\":6414:6436   */\n      swap1\n      pop\n        /* \"#utility.yul\":6481:6482   */\n      0x01\n        /* \"#utility.yul\":6475:6479   */\n      dup3\n        /* \"#utility.yul\":6471:6483   */\n      and\n        /* \"#utility.yul\":6502:6520   */\n      dup1\n        /* \"#utility.yul\":6492:6573   */\n      tag_181\n      jumpi\n        /* \"#utility.yul\":6558:6562   */\n      0x7f\n        /* \"#utility.yul\":6550:6556   */\n      dup3\n        /* \"#utility.yul\":6546:6563   */\n      and\n        /* \"#utility.yul\":6536:6563   */\n      swap2\n      pop\n        /* \"#utility.yul\":6492:6573   */\n    tag_181:\n        /* \"#utility.yul\":6620:6622   */\n      0x20\n        /* \"#utility.yul\":6612:6618   */\n      dup3\n        /* \"#utility.yul\":6609:6623   */\n      lt\n        /* \"#utility.yul\":6589:6607   */\n      dup2\n        /* \"#utility.yul\":6586:6624   */\n      eq\n        /* \"#utility.yul\":6583:6667   */\n      iszero\n      tag_182\n      jumpi\n        /* \"#utility.yul\":6639:6657   */\n      tag_183\n      tag_184\n      jump\t// in\n    tag_183:\n        /* \"#utility.yul\":6583:6667   */\n    tag_182:\n        /* \"#utility.yul\":6404:6673   */\n      pop\n        /* \"#utility.yul\":6353:6673   */\n      swap2\n      swap1\n      pop\n      jump\t// out\n        /* \"#utility.yul\":6679:6859   */\n    tag_33:\n        /* \"#utility.yul\":6727:6804   */\n      0x4e487b7100000000000000000000000000000000000000000000000000000000\n        /* \"#utility.yul\":6724:6725   */\n      0x00\n        /* \"#utility.yul\":6717:6805   */\n      mstore\n        /* \"#utility.yul\":6824:6828   */\n      0x21\n        /* \"#utility.yul\":6821:6822   */\n      0x04\n        /* \"#utility.yul\":6814:6829   */\n      mstore\n        /* \"#utility.yul\":6848:6852   */\n      0x24\n        /* \"#utility.yul\":6845:6846   */\n      0x00\n        /* \"#utility.yul\":6838:6853   */\n      revert\n        /* \"#utility.yul\":6865:7045   */\n    tag_184:\n        /* \"#utility.yul\":6913:6990   */\n      0x4e487b7100000000000000000000000000000000000000000000000000000000\n        /* \"#utility.yul\":6910:6911   */\n      0x00\n        /* \"#utility.yul\":6903:6991   */\n      mstore\n        /* \"#utility.yul\":7010:7014   */\n      0x22\n        /* \"#utility.yul\":7007:7008   */\n      0x04\n        /* \"#utility.yul\":7000:7015   */\n      mstore\n        /* \"#utility.yul\":7034:7038   */\n      0x24\n        /* \"#utility.yul\":7031:7032   */\n      0x00\n        /* \"#utility.yul\":7024:7039   */\n      revert\n        /* \"#utility.yul\":7174:7291   */\n    tag_111:\n        /* \"#utility.yul\":7283:7284   */\n      0x00\n        /* \"#utility.yul\":7280:7281   */\n      dup1\n        /* \"#utility.yul\":7273:7285   */\n      revert\n        /* \"#utility.yul\":7297:7399   */\n    tag_131:\n        /* \"#utility.yul\":7338:7344   */\n      0x00\n        /* \"#utility.yul\":7389:7391   */\n      0x1f\n        /* \"#utility.yul\":7385:7392   */\n      not\n        /* \"#utility.yul\":7380:7382   */\n      0x1f\n        /* \"#utility.yul\":7373:7378   */\n      dup4\n        /* \"#utility.yul\":7369:7383   */\n      add\n        /* \"#utility.yul\":7365:7393   */\n      and\n        /* \"#utility.yul\":7355:7393   */\n      swap1\n      pop\n        /* \"#utility.yul\":7297:7399   */\n      swap2\n      swap1\n      pop\n      jump\t// out\n        /* \"#utility.yul\":7405:7585   */\n    tag_137:\n        /* \"#utility.yul\":7545:7577   */\n      0x4f6e6c79206f776e65722063616e20617574686f72697a652075736572730000\n        /* \"#utility.yul\":7541:7542   */\n      0x00\n        /* \"#utility.yul\":7533:7539   */\n      dup3\n        /* \"#utility.yul\":7529:7543   */\n      add\n        /* \"#utility.yul\":7522:7578   */\n      mstore\n        /* \"#utility.yul\":7405:7585   */\n      pop\n      jump\t// out\n        /* \"#utility.yul\":7591:7707   */\n    tag_170:\n        /* \"#utility.yul\":7675:7676   */\n      0x02\n        /* \"#utility.yul\":7668:7673   */\n      dup2\n        /* \"#utility.yul\":7665:7677   */\n      lt\n        /* \"#utility.yul\":7655:7701   */\n      tag_193\n      jumpi\n        /* \"#utility.yul\":7681:7699   */\n      tag_194\n      tag_33\n      jump\t// in\n    tag_194:\n        /* \"#utility.yul\":7655:7701   */\n    tag_193:\n        /* \"#utility.yul\":7591:7707   */\n      pop\n      jump\t// out\n        /* \"#utility.yul\":7713:7835   */\n    tag_103:\n        /* \"#utility.yul\":7786:7810   */\n      tag_196\n        /* \"#utility.yul\":7804:7809   */\n      dup2\n        /* \"#utility.yul\":7786:7810   */\n      tag_117\n      jump\t// in\n    tag_196:\n        /* \"#utility.yul\":7779:7784   */\n      dup2\n        /* \"#utility.yul\":7776:7811   */\n      eq\n        /* \"#utility.yul\":7766:7829   */\n      tag_197\n      jumpi\n        /* \"#utility.yul\":7825:7826   */\n      0x00\n        /* \"#utility.yul\":7822:7823   */\n      dup1\n        /* \"#utility.yul\":7815:7827   */\n      revert\n        /* \"#utility.yul\":7766:7829   */\n    tag_197:\n        /* \"#utility.yul\":7713:7835   */\n      pop\n      jump\t// out\n        /* \"#utility.yul\":7841:7951   */\n    tag_107:\n        /* \"#utility.yul\":7925:7926   */\n      0x02\n        /* \"#utility.yul\":7918:7923   */\n      dup2\n        /* \"#utility.yul\":7915:7927   */\n      lt\n        /* \"#utility.yul\":7905:7945   */\n      tag_199\n      jumpi\n        /* \"#utility.yul\":7941:7942   */\n      0x00\n        /* \"#utility.yul\":7938:7939   */\n      dup1\n        /* \"#utility.yul\":7931:7943   */\n      revert\n        /* \"#utility.yul\":7905:7945   */\n    tag_199:\n        /* \"#utility.yul\":7841:7951   */\n      pop\n      jump\t// out\n\n    auxdata: 0xa26469706673582212209fa0d6b17bfeb7ca2d9213b1333035d73da559f9dbd492984f171ada3b49412b64736f6c63430008070033\n}\n",
				"bytecode": {
					"linkReferences": {},
					"object": "60806040523480156200001157600080fd5b506040516200122438038062001224833981810160405281019062000037919062000261565b6040518060400160405280858152602001848152506000808201518160000190805190602001906200006b9291906200011c565b5060208201518160010190805190602001906200008a9291906200011c565b509050506040518060400160405280838152602001828152506002600082015181600001556020820151816001019080519060200190620000cd9291906200011c565b5090505033600460006101000a81548173ffffffffffffffffffffffffffffffffffffffff021916908373ffffffffffffffffffffffffffffffffffffffff16021790555050505050620004d8565b8280546200012a90620003cf565b90600052602060002090601f0160209004810192826200014e57600085556200019a565b82601f106200016957805160ff19168380011785556200019a565b828001600101855582156200019a579182015b82811115620001995782518255916020019190600101906200017c565b5b509050620001a99190620001ad565b5090565b5b80821115620001c8576000816000905550600101620001ae565b5090565b6000620001e3620001dd8462000359565b62000330565b9050828152602081018484840111156200020257620002016200049e565b5b6200020f84828562000399565b509392505050565b600082601f8301126200022f576200022e62000499565b5b815162000241848260208601620001cc565b91505092915050565b6000815190506200025b81620004be565b92915050565b600080600080608085870312156200027e576200027d620004a8565b5b600085015167ffffffffffffffff8111156200029f576200029e620004a3565b5b620002ad8782880162000217565b945050602085015167ffffffffffffffff811115620002d157620002d0620004a3565b5b620002df8782880162000217565b9350506040620002f2878288016200024a565b925050606085015167ffffffffffffffff811115620003165762000315620004a3565b5b620003248782880162000217565b91505092959194509250565b60006200033c6200034f565b90506200034a828262000405565b919050565b6000604051905090565b600067ffffffffffffffff8211156200037757620003766200046a565b5b6200038282620004ad565b9050602081019050919050565b6000819050919050565b60005b83811015620003b95780820151818401526020810190506200039c565b83811115620003c9576000848401525b50505050565b60006002820490506001821680620003e857607f821691505b60208210811415620003ff57620003fe6200043b565b5b50919050565b6200041082620004ad565b810181811067ffffffffffffffff821117156200043257620004316200046a565b5b80604052505050565b7f4e487b7100000000000000000000000000000000000000000000000000000000600052602260045260246000fd5b7f4e487b7100000000000000000000000000000000000000000000000000000000600052604160045260246000fd5b600080fd5b600080fd5b600080fd5b600080fd5b6000601f19601f8301169050919050565b620004c9816200038f565b8114620004d557600080fd5b50565b610d3c80620004e86000396000f3fe608060405234801561001057600080fd5b50600436106100415760003560e01c806381f539ff146100465780639f0010fc146100645780639f999da314610080575b600080fd5b61004e61009e565b60405161005b9190610b19565b60405180910390f35b61007e60048036038101906100799190610964565b610378565b005b61008861051c565b6040516100959190610af7565b60405180910390f35b6100a6610906565b6001600460009054906101000a900473ffffffffffffffffffffffffffffffffffffffff1673ffffffffffffffffffffffffffffffffffffffff163373ffffffffffffffffffffffffffffffffffffffff16148061014d5750600660003373ffffffffffffffffffffffffffffffffffffffff1673ffffffffffffffffffffffffffffffffffffffff16815260200190815260200160002060009054906101000a900460ff165b156102025760026040518060400160405290816000820154815260200160018201805461017990610bfc565b80601f01602080910402602001604051908101604052809291908181526020018280546101a590610bfc565b80156101f25780601f106101c7576101008083540402835291602001916101f2565b820191906000526020600020905b8154815290600101906020018083116101d557829003601f168201915b5050505050815250509150610374565b6000600181111561021657610215610c2e565b5b81600181111561022957610228610c2e565b5b14801561027f5750600560003373ffffffffffffffffffffffffffffffffffffffff1673ffffffffffffffffffffffffffffffffffffffff16815260200190815260200160002060009054906101000a900460ff165b15610334576002604051806040016040529081600082015481526020016001820180546102ab90610bfc565b80601f01602080910402602001604051908101604052809291908181526020018280546102d790610bfc565b80156103245780601f106102f957610100808354040283529160200191610324565b820191906000526020600020905b81548152906001019060200180831161030757829003601f168201915b5050505050815250509150610373565b33816040517f301d703b00000000000000000000000000000000000000000000000000000000815260040161036a929190610aae565b60405180910390fd5b5b5090565b600460009054906101000a900473ffffffffffffffffffffffffffffffffffffffff1673ffffffffffffffffffffffffffffffffffffffff163373ffffffffffffffffffffffffffffffffffffffff1614610408576040517f08c379a00000000000000000000000000000000000000000000000000000000081526004016103ff90610ad7565b60405180910390fd5b6000600181111561041c5761041b610c2e565b5b82600181111561042f5761042e610c2e565b5b1415610492576001600560008373ffffffffffffffffffffffffffffffffffffffff1673ffffffffffffffffffffffffffffffffffffffff16815260200190815260200160002060006101000a81548160ff021916908315150217905550610518565b6001808111156104a5576104a4610c2e565b5b8260018111156104b8576104b7610c2e565b5b1415610517576001600660008373ffffffffffffffffffffffffffffffffffffffff1673ffffffffffffffffffffffffffffffffffffffff16815260200190815260200160002060006101000a81548160ff0219169083151502179055505b5b5050565b610524610920565b6000600460009054906101000a900473ffffffffffffffffffffffffffffffffffffffff1673ffffffffffffffffffffffffffffffffffffffff163373ffffffffffffffffffffffffffffffffffffffff1614806105cb5750600660003373ffffffffffffffffffffffffffffffffffffffff1673ffffffffffffffffffffffffffffffffffffffff16815260200190815260200160002060009054906101000a900460ff165b156107085760006040518060400160405290816000820180546105ed90610bfc565b80601f016020809104026020016040519081016040528092919081815260200182805461061990610bfc565b80156106665780601f1061063b57610100808354040283529160200191610666565b820191906000526020600020905b81548152906001019060200180831161064957829003601f168201915b5050505050815260200160018201805461067f90610bfc565b80601f01602080910402602001604051908101604052809291908181526020018280546106ab90610bfc565b80156106f85780601f106106cd576101008083540402835291602001916106f8565b820191906000526020600020905b8154815290600101906020018083116106db57829003601f168201915b5050505050815250509150610902565b6000600181111561071c5761071b610c2e565b5b81600181111561072f5761072e610c2e565b5b1480156107855750600560003373ffffffffffffffffffffffffffffffffffffffff1673ffffffffffffffffffffffffffffffffffffffff16815260200190815260200160002060009054906101000a900460ff165b156108c25760006040518060400160405290816000820180546107a790610bfc565b80601f01602080910402602001604051908101604052809291908181526020018280546107d390610bfc565b80156108205780601f106107f557610100808354040283529160200191610820565b820191906000526020600020905b81548152906001019060200180831161080357829003601f168201915b5050505050815260200160018201805461083990610bfc565b80601f016020809104026020016040519081016040528092919081815260200182805461086590610bfc565b80156108b25780601f10610887576101008083540402835291602001916108b2565b820191906000526020600020905b81548152906001019060200180831161089557829003601f168201915b5050505050815250509150610901565b33816040517f301d703b0000000000000000000000000000000000000000000000000000000081526004016108f8929190610aae565b60405180910390fd5b5b5090565b604051806040016040528060008152602001606081525090565b604051806040016040528060608152602001606081525090565b60008135905061094981610cdf565b92915050565b60008135905061095e81610cf6565b92915050565b6000806040838503121561097b5761097a610c8c565b5b60006109898582860161094f565b925050602061099a8582860161093a565b9150509250929050565b6109ad81610b68565b82525050565b6109bc81610bb7565b82525050565b60006109cd82610b3b565b6109d78185610b46565b93506109e7818560208601610bc9565b6109f081610c91565b840191505092915050565b6000610a08601e83610b57565b9150610a1382610ca2565b602082019050919050565b60006040830160008301518482036000860152610a3b82826109c2565b91505060208301518482036020860152610a5582826109c2565b9150508091505092915050565b6000604083016000830151610a7a6000860182610a9f565b5060208301518482036020860152610a9282826109c2565b9150508091505092915050565b610aa881610bad565b82525050565b6000604082019050610ac360008301856109a4565b610ad060208301846109b3565b9392505050565b60006020820190508181036000830152610af0816109fb565b9050919050565b60006020820190508181036000830152610b118184610a1e565b905092915050565b60006020820190508181036000830152610b338184610a62565b905092915050565b600081519050919050565b600082825260208201905092915050565b600082825260208201905092915050565b6000610b7382610b8d565b9050919050565b6000819050610b8882610ccb565b919050565b600073ffffffffffffffffffffffffffffffffffffffff82169050919050565b6000819050919050565b6000610bc282610b7a565b9050919050565b60005b83811015610be7578082015181840152602081019050610bcc565b83811115610bf6576000848401525b50505050565b60006002820490506001821680610c1457607f821691505b60208210811415610c2857610c27610c5d565b5b50919050565b7f4e487b7100000000000000000000000000000000000000000000000000000000600052602160045260246000fd5b7f4e487b7100000000000000000000000000000000000000000000000000000000600052602260045260246000fd5b600080fd5b6000601f19601f8301169050919050565b7f4f6e6c79206f776e65722063616e20617574686f72697a652075736572730000600082015250565b60028110610cdc57610cdb610c2e565b5b50565b610ce881610b68565b8114610cf357600080fd5b50565b60028110610d0357600080fd5b5056fea26469706673582212209fa0d6b17bfeb7ca2d9213b1333035d73da559f9dbd492984f171ada3b49412b64736f6c63430008070033",
					"opcodes": "PUSH1 0x80 PUSH1 0x40 MSTORE CALLVALUE DUP1 ISZERO PUSH3 0x11 JUMPI PUSH1 0x0 DUP1 REVERT JUMPDEST POP PUSH1 0x40 MLOAD PUSH3 0x1224 CODESIZE SUB DUP1 PUSH3 0x1224 DUP4 CODECOPY DUP2 DUP2 ADD PUSH1 0x40 MSTORE DUP2 ADD SWAP1 PUSH3 0x37 SWAP2 SWAP1 PUSH3 0x261 JUMP JUMPDEST PUSH1 0x40 MLOAD DUP1 PUSH1 0x40 ADD PUSH1 0x40 MSTORE DUP1 DUP6 DUP2 MSTORE PUSH1 0x20 ADD DUP5 DUP2 MSTORE POP PUSH1 0x0 DUP1 DUP3 ADD MLOAD DUP2 PUSH1 0x0 ADD SWAP1 DUP1 MLOAD SWAP1 PUSH1 0x20 ADD SWAP1 PUSH3 0x6B SWAP3 SWAP2 SWAP1 PUSH3 0x11C JUMP JUMPDEST POP PUSH1 0x20 DUP3 ADD MLOAD DUP2 PUSH1 0x1 ADD SWAP1 DUP1 MLOAD SWAP1 PUSH1 0x20 ADD SWAP1 PUSH3 0x8A SWAP3 SWAP2 SWAP1 PUSH3 0x11C JUMP JUMPDEST POP SWAP1 POP POP PUSH1 0x40 MLOAD DUP1 PUSH1 0x40 ADD PUSH1 0x40 MSTORE DUP1 DUP4 DUP2 MSTORE PUSH1 0x20 ADD DUP3 DUP2 MSTORE POP PUSH1 0x2 PUSH1 0x0 DUP3 ADD MLOAD DUP2 PUSH1 0x0 ADD SSTORE PUSH1 0x20 DUP3 ADD MLOAD DUP2 PUSH1 0x1 ADD SWAP1 DUP1 MLOAD SWAP1 PUSH1 0x20 ADD SWAP1 PUSH3 0xCD SWAP3 SWAP2 SWAP1 PUSH3 0x11C JUMP JUMPDEST POP SWAP1 POP POP CALLER PUSH1 0x4 PUSH1 0x0 PUSH2 0x100 EXP DUP2 SLOAD DUP2 PUSH20 0xFFFFFFFFFFFFFFFFFFFFFFFFFFFFFFFFFFFFFFFF MUL NOT AND SWAP1 DUP4 PUSH20 0xFFFFFFFFFFFFFFFFFFFFFFFFFFFFFFFFFFFFFFFF AND MUL OR SWAP1 SSTORE POP POP POP POP POP PUSH3 0x4D8 JUMP JUMPDEST DUP3 DUP1 SLOAD PUSH3 0x12A SWAP1 PUSH3 0x3CF JUMP JUMPDEST SWAP1 PUSH1 0x0 MSTORE PUSH1 0x20 PUSH1 0x0 KECCAK256 SWAP1 PUSH1 0x1F ADD PUSH1 0x20 SWAP1 DIV DUP2 ADD SWAP3 DUP3 PUSH3 0x14E JUMPI PUSH1 0x0 DUP6 SSTORE PUSH3 0x19A JUMP JUMPDEST DUP3 PUSH1 0x1F LT PUSH3 0x169 JUMPI DUP1 MLOAD PUSH1 0xFF NOT AND DUP4 DUP1 ADD OR DUP6 SSTORE PUSH3 0x19A JUMP JUMPDEST DUP3 DUP1 ADD PUSH1 0x1 ADD DUP6 SSTORE DUP3 ISZERO PUSH3 0x19A JUMPI SWAP2 DUP3 ADD JUMPDEST DUP3 DUP2 GT ISZERO PUSH3 0x199 JUMPI DUP3 MLOAD DUP3 SSTORE SWAP2 PUSH1 0x20 ADD SWAP2 SWAP1 PUSH1 0x1 ADD SWAP1 PUSH3 0x17C JUMP JUMPDEST JUMPDEST POP SWAP1 POP PUSH3 0x1A9 SWAP2 SWAP1 PUSH3 0x1AD JUMP JUMPDEST POP SWAP1 JUMP JUMPDEST JUMPDEST DUP1 DUP3 GT ISZERO PUSH3 0x1C8 JUMPI PUSH1 0x0 DUP2 PUSH1 0x0 SWAP1 SSTORE POP PUSH1 0x1 ADD PUSH3 0x1AE JUMP JUMPDEST POP SWAP1 JUMP JUMPDEST PUSH1 0x0 PUSH3 0x1E3 PUSH3 0x1DD DUP5 PUSH3 0x359 JUMP JUMPDEST PUSH3 0x330 JUMP JUMPDEST SWAP1 POP DUP3 DUP2 MSTORE PUSH1 0x20 DUP2 ADD DUP5 DUP5 DUP5 ADD GT ISZERO PUSH3 0x202 JUMPI PUSH3 0x201 PUSH3 0x49E JUMP JUMPDEST JUMPDEST PUSH3 0x20F DUP5 DUP3 DUP6 PUSH3 0x399 JUMP JUMPDEST POP SWAP4 SWAP3 POP POP POP JUMP JUMPDEST PUSH1 0x0 DUP3 PUSH1 0x1F DUP4 ADD SLT PUSH3 0x22F JUMPI PUSH3 0x22E PUSH3 0x499 JUMP JUMPDEST JUMPDEST DUP2 MLOAD PUSH3 0x241 DUP5 DUP3 PUSH1 0x20 DUP7 ADD PUSH3 0x1CC JUMP JUMPDEST SWAP2 POP POP SWAP3 SWAP2 POP POP JUMP JUMPDEST PUSH1 0x0 DUP2 MLOAD SWAP1 POP PUSH3 0x25B DUP2 PUSH3 0x4BE JUMP JUMPDEST SWAP3 SWAP2 POP POP JUMP JUMPDEST PUSH1 0x0 DUP1 PUSH1 0x0 DUP1 PUSH1 0x80 DUP6 DUP8 SUB SLT ISZERO PUSH3 0x27E JUMPI PUSH3 0x27D PUSH3 0x4A8 JUMP JUMPDEST JUMPDEST PUSH1 0x0 DUP6 ADD MLOAD PUSH8 0xFFFFFFFFFFFFFFFF DUP2 GT ISZERO PUSH3 0x29F JUMPI PUSH3 0x29E PUSH3 0x4A3 JUMP JUMPDEST JUMPDEST PUSH3 0x2AD DUP8 DUP3 DUP9 ADD PUSH3 0x217 JUMP JUMPDEST SWAP5 POP POP PUSH1 0x20 DUP6 ADD MLOAD PUSH8 0xFFFFFFFFFFFFFFFF DUP2 GT ISZERO PUSH3 0x2D1 JUMPI PUSH3 0x2D0 PUSH3 0x4A3 JUMP JUMPDEST JUMPDEST PUSH3 0x2DF DUP8 DUP3 DUP9 ADD PUSH3 0x217 JUMP JUMPDEST SWAP4 POP POP PUSH1 0x40 PUSH3 0x2F2 DUP8 DUP3 DUP9 ADD PUSH3 0x24A JUMP JUMPDEST SWAP3 POP POP PUSH1 0x60 DUP6 ADD MLOAD PUSH8 0xFFFFFFFFFFFFFFFF DUP2 GT ISZERO PUSH3 0x316 JUMPI PUSH3 0x315 PUSH3 0x4A3 JUMP JUMPDEST JUMPDEST PUSH3 0x324 DUP8 DUP3 DUP9 ADD PUSH3 0x217 JUMP JUMPDEST SWAP2 POP POP SWAP3 SWAP6 SWAP2 SWAP5 POP SWAP3 POP JUMP JUMPDEST PUSH1 0x0 PUSH3 0x33C PUSH3 0x34F JUMP JUMPDEST SWAP1 POP PUSH3 0x34A DUP3 DUP3 PUSH3 0x405 JUMP JUMPDEST SWAP2 SWAP1 POP JUMP JUMPDEST PUSH1 0x0 PUSH1 0x40 MLOAD SWAP1 POP SWAP1 JUMP JUMPDEST PUSH1 0x0 PUSH8 0xFFFFFFFFFFFFFFFF DUP3 GT ISZERO PUSH3 0x377 JUMPI PUSH3 0x376 PUSH3 0x46A JUMP JUMPDEST JUMPDEST PUSH3 0x382 DUP3 PUSH3 0x4AD JUMP JUMPDEST SWAP1 POP PUSH1 0x20 DUP2 ADD SWAP1 POP SWAP2 SWAP1 POP JUMP JUMPDEST PUSH1 0x0 DUP2 SWAP1 POP SWAP2 SWAP1 POP JUMP JUMPDEST PUSH1 0x0 JUMPDEST DUP4 DUP2 LT ISZERO PUSH3 0x3B9 JUMPI DUP1 DUP3 ADD MLOAD DUP2 DUP5 ADD MSTORE PUSH1 0x20 DUP2 ADD SWAP1 POP PUSH3 0x39C JUMP JUMPDEST DUP4 DUP2 GT ISZERO PUSH3 0x3C9 JUMPI PUSH1 0x0 DUP5 DUP5 ADD MSTORE JUMPDEST POP POP POP POP JUMP JUMPDEST PUSH1 0x0 PUSH1 0x2 DUP3 DIV SWAP1 POP PUSH1 0x1 DUP3 AND DUP1 PUSH3 0x3E8 JUMPI PUSH1 0x7F DUP3 AND SWAP2 POP JUMPDEST PUSH1 0x20 DUP3 LT DUP2 EQ ISZERO PUSH3 0x3FF JUMPI PUSH3 0x3FE PUSH3 0x43B JUMP JUMPDEST JUMPDEST POP SWAP2 SWAP1 POP JUMP JUMPDEST PUSH3 0x410 DUP3 PUSH3 0x4AD JUMP JUMPDEST DUP2 ADD DUP2 DUP2 LT PUSH8 0xFFFFFFFFFFFFFFFF DUP3 GT OR ISZERO PUSH3 0x432 JUMPI PUSH3 0x431 PUSH3 0x46A JUMP JUMPDEST JUMPDEST DUP1 PUSH1 0x40 MSTORE POP POP POP JUMP JUMPDEST PUSH32 0x4E487B7100000000000000000000000000000000000000000000000000000000 PUSH1 0x0 MSTORE PUSH1 0x22 PUSH1 0x4 MSTORE PUSH1 0x24 PUSH1 0x0 REVERT JUMPDEST PUSH32 0x4E487B7100000000000000000000000000000000000000000000000000000000 PUSH1 0x0 MSTORE PUSH1 0x41 PUSH1 0x4 MSTORE PUSH1 0x24 PUSH1 0x0 REVERT JUMPDEST PUSH1 0x0 DUP1 REVERT JUMPDEST PUSH1 0x0 DUP1 REVERT JUMPDEST PUSH1 0x0 DUP1 REVERT JUMPDEST PUSH1 0x0 DUP1 REVERT JUMPDEST PUSH1 0x0 PUSH1 0x1F NOT PUSH1 0x1F DUP4 ADD AND SWAP1 POP SWAP2 SWAP1 POP JUMP JUMPDEST PUSH3 0x4C9 DUP2 PUSH3 0x38F JUMP JUMPDEST DUP2 EQ PUSH3 0x4D5 JUMPI PUSH1 0x0 DUP1 REVERT JUMPDEST POP JUMP JUMPDEST PUSH2 0xD3C DUP1 PUSH3 0x4E8 PUSH1 0x0 CODECOPY PUSH1 0x0 RETURN INVALID PUSH1 0x80 PUSH1 0x40 MSTORE CALLVALUE DUP1 ISZERO PUSH2 0x10 JUMPI PUSH1 0x0 DUP1 REVERT JUMPDEST POP PUSH1 0x4 CALLDATASIZE LT PUSH2 0x41 JUMPI PUSH1 0x0 CALLDATALOAD PUSH1 0xE0 SHR DUP1 PUSH4 0x81F539FF EQ PUSH2 0x46 JUMPI DUP1 PUSH4 0x9F0010FC EQ PUSH2 0x64 JUMPI DUP1 PUSH4 0x9F999DA3 EQ PUSH2 0x80 JUMPI JUMPDEST PUSH1 0x0 DUP1 REVERT JUMPDEST PUSH2 0x4E PUSH2 0x9E JUMP JUMPDEST PUSH1 0x40 MLOAD PUSH2 0x5B SWAP2 SWAP1 PUSH2 0xB19 JUMP JUMPDEST PUSH1 0x40 MLOAD DUP1 SWAP2 SUB SWAP1 RETURN JUMPDEST PUSH2 0x7E PUSH1 0x4 DUP1 CALLDATASIZE SUB DUP2 ADD SWAP1 PUSH2 0x79 SWAP2 SWAP1 PUSH2 0x964 JUMP JUMPDEST PUSH2 0x378 JUMP JUMPDEST STOP JUMPDEST PUSH2 0x88 PUSH2 0x51C JUMP JUMPDEST PUSH1 0x40 MLOAD PUSH2 0x95 SWAP2 SWAP1 PUSH2 0xAF7 JUMP JUMPDEST PUSH1 0x40 MLOAD DUP1 SWAP2 SUB SWAP1 RETURN JUMPDEST PUSH2 0xA6 PUSH2 0x906 JUMP JUMPDEST PUSH1 0x1 PUSH1 0x4 PUSH1 0x0 SWAP1 SLOAD SWAP1 PUSH2 0x100 EXP SWAP1 DIV PUSH20 0xFFFFFFFFFFFFFFFFFFFFFFFFFFFFFFFFFFFFFFFF AND PUSH20 0xFFFFFFFFFFFFFFFFFFFFFFFFFFFFFFFFFFFFFFFF AND CALLER PUSH20 0xFFFFFFFFFFFFFFFFFFFFFFFFFFFFFFFFFFFFFFFF AND EQ DUP1 PUSH2 0x14D JUMPI POP PUSH1 0x6 PUSH1 0x0 CALLER PUSH20 0xFFFFFFFFFFFFFFFFFFFFFFFFFFFFFFFFFFFFFFFF AND PUSH20 0xFFFFFFFFFFFFFFFFFFFFFFFFFFFFFFFFFFFFFFFF AND DUP2 MSTORE PUSH1 0x20 ADD SWAP1 DUP2 MSTORE PUSH1 0x20 ADD PUSH1 0x0 KECCAK256 PUSH1 0x0 SWAP1 SLOAD SWAP1 PUSH2 0x100 EXP SWAP1 DIV PUSH1 0xFF AND JUMPDEST ISZERO PUSH2 0x202 JUMPI PUSH1 0x2 PUSH1 0x40 MLOAD DUP1 PUSH1 0x40 ADD PUSH1 0x40 MSTORE SWAP1 DUP2 PUSH1 0x0 DUP3 ADD SLOAD DUP2 MSTORE PUSH1 0x20 ADD PUSH1 0x1 DUP3 ADD DUP1 SLOAD PUSH2 0x179 SWAP1 PUSH2 0xBFC JUMP JUMPDEST DUP1 PUSH1 0x1F ADD PUSH1 0x20 DUP1 SWAP2 DIV MUL PUSH1 0x20 ADD PUSH1 0x40 MLOAD SWAP1 DUP2 ADD PUSH1 0x40 MSTORE DUP1 SWAP3 SWAP2 SWAP1 DUP2 DUP2 MSTORE PUSH1 0x20 ADD DUP3 DUP1 SLOAD PUSH2 0x1A5 SWAP1 PUSH2 0xBFC JUMP JUMPDEST DUP1 ISZERO PUSH2 0x1F2 JUMPI DUP1 PUSH1 0x1F LT PUSH2 0x1C7 JUMPI PUSH2 0x100 DUP1 DUP4 SLOAD DIV MUL DUP4 MSTORE SWAP2 PUSH1 0x20 ADD SWAP2 PUSH2 0x1F2 JUMP JUMPDEST DUP3 ADD SWAP2 SWAP1 PUSH1 0x0 MSTORE PUSH1 0x20 PUSH1 0x0 KECCAK256 SWAP1 JUMPDEST DUP2 SLOAD DUP2 MSTORE SWAP1 PUSH1 0x1 ADD SWAP1 PUSH1 0x20 ADD DUP1 DUP4 GT PUSH2 0x1D5 JUMPI DUP3 SWAP1 SUB PUSH1 0x1F AND DUP3 ADD SWAP2 JUMPDEST POP POP POP POP POP DUP2 MSTORE POP POP SWAP2 POP PUSH2 0x374 JUMP JUMPDEST PUSH1 0x0 PUSH1 0x1 DUP2 GT ISZERO PUSH2 0x216 JUMPI PUSH2 0x215 PUSH2 0xC2E JUMP JUMPDEST JUMPDEST DUP2 PUSH1 0x1 DUP2 GT ISZERO PUSH2 0x229 JUMPI PUSH2 0x228 PUSH2 0xC2E JUMP JUMPDEST JUMPDEST EQ DUP1 ISZERO PUSH2 0x27F JUMPI POP PUSH1 0x5 PUSH1 0x0 CALLER PUSH20 0xFFFFFFFFFFFFFFFFFFFFFFFFFFFFFFFFFFFFFFFF AND PUSH20 0xFFFFFFFFFFFFFFFFFFFFFFFFFFFFFFFFFFFFFFFF AND DUP2 MSTORE PUSH1 0x20 ADD SWAP1 DUP2 MSTORE PUSH1 0x20 ADD PUSH1 0x0 KECCAK256 PUSH1 0x0 SWAP1 SLOAD SWAP1 PUSH2 0x100 EXP SWAP1 DIV PUSH1 0xFF AND JUMPDEST ISZERO PUSH2 0x334 JUMPI PUSH1 0x2 PUSH1 0x40 MLOAD DUP1 PUSH1 0x40 ADD PUSH1 0x40 MSTORE SWAP1 DUP2 PUSH1 0x0 DUP3 ADD SLOAD DUP2 MSTORE PUSH1 0x20 ADD PUSH1 0x1 DUP3 ADD DUP1 SLOAD PUSH2 0x2AB SWAP1 PUSH2 0xBFC JUMP JUMPDEST DUP1 PUSH1 0x1F ADD PUSH1 0x20 DUP1 SWAP2 DIV MUL PUSH1 0x20 ADD PUSH1 0x40 MLOAD SWAP1 DUP2 ADD PUSH1 0x40 MSTORE DUP1 SWAP3 SWAP2 SWAP1 DUP2 DUP2 MSTORE PUSH1 0x20 ADD DUP3 DUP1 SLOAD PUSH2 0x2D7 SWAP1 PUSH2 0xBFC JUMP JUMPDEST DUP1 ISZERO PUSH2 0x324 JUMPI DUP1 PUSH1 0x1F LT PUSH2 0x2F9 JUMPI PUSH2 0x100 DUP1 DUP4 SLOAD DIV MUL DUP4 MSTORE SWAP2 PUSH1 0x20 ADD SWAP2 PUSH2 0x324 JUMP JUMPDEST DUP3 ADD SWAP2 SWAP1 PUSH1 0x0 MSTORE PUSH1 0x20 PUSH1 0x0 KECCAK256 SWAP1 JUMPDEST DUP2 SLOAD DUP2 MSTORE SWAP1 PUSH1 0x1 ADD SWAP1 PUSH1 0x20 ADD DUP1 DUP4 GT PUSH2 0x307 JUMPI DUP3 SWAP1 SUB PUSH1 0x1F AND DUP3 ADD SWAP2 JUMPDEST POP POP POP POP POP DUP2 MSTORE POP POP SWAP2 POP PUSH2 0x373 JUMP JUMPDEST CALLER DUP2 PUSH1 0x40 MLOAD PUSH32 0x301D703B00000000000000000000000000000000000000000000000000000000 DUP2 MSTORE PUSH1 0x4 ADD PUSH2 0x36A SWAP3 SWAP2 SWAP1 PUSH2 0xAAE JUMP JUMPDEST PUSH1 0x40 MLOAD DUP1 SWAP2 SUB SWAP1 REVERT JUMPDEST JUMPDEST POP SWAP1 JUMP JUMPDEST PUSH1 0x4 PUSH1 0x0 SWAP1 SLOAD SWAP1 PUSH2 0x100 EXP SWAP1 DIV PUSH20 0xFFFFFFFFFFFFFFFFFFFFFFFFFFFFFFFFFFFFFFFF AND PUSH20 0xFFFFFFFFFFFFFFFFFFFFFFFFFFFFFFFFFFFFFFFF AND CALLER PUSH20 0xFFFFFFFFFFFFFFFFFFFFFFFFFFFFFFFFFFFFFFFF AND EQ PUSH2 0x408 JUMPI PUSH1 0x40 MLOAD PUSH32 0x8C379A000000000000000000000000000000000000000000000000000000000 DUP2 MSTORE PUSH1 0x4 ADD PUSH2 0x3FF SWAP1 PUSH2 0xAD7 JUMP JUMPDEST PUSH1 0x40 MLOAD DUP1 SWAP2 SUB SWAP1 REVERT JUMPDEST PUSH1 0x0 PUSH1 0x1 DUP2 GT ISZERO PUSH2 0x41C JUMPI PUSH2 0x41B PUSH2 0xC2E JUMP JUMPDEST JUMPDEST DUP3 PUSH1 0x1 DUP2 GT ISZERO PUSH2 0x42F JUMPI PUSH2 0x42E PUSH2 0xC2E JUMP JUMPDEST JUMPDEST EQ ISZERO PUSH2 0x492 JUMPI PUSH1 0x1 PUSH1 0x5 PUSH1 0x0 DUP4 PUSH20 0xFFFFFFFFFFFFFFFFFFFFFFFFFFFFFFFFFFFFFFFF AND PUSH20 0xFFFFFFFFFFFFFFFFFFFFFFFFFFFFFFFFFFFFFFFF AND DUP2 MSTORE PUSH1 0x20 ADD SWAP1 DUP2 MSTORE PUSH1 0x20 ADD PUSH1 0x0 KECCAK256 PUSH1 0x0 PUSH2 0x100 EXP DUP2 SLOAD DUP2 PUSH1 0xFF MUL NOT AND SWAP1 DUP4 ISZERO ISZERO MUL OR SWAP1 SSTORE POP PUSH2 0x518 JUMP JUMPDEST PUSH1 0x1 DUP1 DUP2 GT ISZERO PUSH2 0x4A5 JUMPI PUSH2 0x4A4 PUSH2 0xC2E JUMP JUMPDEST JUMPDEST DUP3 PUSH1 0x1 DUP2 GT ISZERO PUSH2 0x4B8 JUMPI PUSH2 0x4B7 PUSH2 0xC2E JUMP JUMPDEST JUMPDEST EQ ISZERO PUSH2 0x517 JUMPI PUSH1 0x1 PUSH1 0x6 PUSH1 0x0 DUP4 PUSH20 0xFFFFFFFFFFFFFFFFFFFFFFFFFFFFFFFFFFFFFFFF AND PUSH20 0xFFFFFFFFFFFFFFFFFFFFFFFFFFFFFFFFFFFFFFFF AND DUP2 MSTORE PUSH1 0x20 ADD SWAP1 DUP2 MSTORE PUSH1 0x20 ADD PUSH1 0x0 KECCAK256 PUSH1 0x0 PUSH2 0x100 EXP DUP2 SLOAD DUP2 PUSH1 0xFF MUL NOT AND SWAP1 DUP4 ISZERO ISZERO MUL OR SWAP1 SSTORE POP JUMPDEST JUMPDEST POP POP JUMP JUMPDEST PUSH2 0x524 PUSH2 0x920 JUMP JUMPDEST PUSH1 0x0 PUSH1 0x4 PUSH1 0x0 SWAP1 SLOAD SWAP1 PUSH2 0x100 EXP SWAP1 DIV PUSH20 0xFFFFFFFFFFFFFFFFFFFFFFFFFFFFFFFFFFFFFFFF AND PUSH20 0xFFFFFFFFFFFFFFFFFFFFFFFFFFFFFFFFFFFFFFFF AND CALLER PUSH20 0xFFFFFFFFFFFFFFFFFFFFFFFFFFFFFFFFFFFFFFFF AND EQ DUP1 PUSH2 0x5CB JUMPI POP PUSH1 0x6 PUSH1 0x0 CALLER PUSH20 0xFFFFFFFFFFFFFFFFFFFFFFFFFFFFFFFFFFFFFFFF AND PUSH20 0xFFFFFFFFFFFFFFFFFFFFFFFFFFFFFFFFFFFFFFFF AND DUP2 MSTORE PUSH1 0x20 ADD SWAP1 DUP2 MSTORE PUSH1 0x20 ADD PUSH1 0x0 KECCAK256 PUSH1 0x0 SWAP1 SLOAD SWAP1 PUSH2 0x100 EXP SWAP1 DIV PUSH1 0xFF AND JUMPDEST ISZERO PUSH2 0x708 JUMPI PUSH1 0x0 PUSH1 0x40 MLOAD DUP1 PUSH1 0x40 ADD PUSH1 0x40 MSTORE SWAP1 DUP2 PUSH1 0x0 DUP3 ADD DUP1 SLOAD PUSH2 0x5ED SWAP1 PUSH2 0xBFC JUMP JUMPDEST DUP1 PUSH1 0x1F ADD PUSH1 0x20 DUP1 SWAP2 DIV MUL PUSH1 0x20 ADD PUSH1 0x40 MLOAD SWAP1 DUP2 ADD PUSH1 0x40 MSTORE DUP1 SWAP3 SWAP2 SWAP1 DUP2 DUP2 MSTORE PUSH1 0x20 ADD DUP3 DUP1 SLOAD PUSH2 0x619 SWAP1 PUSH2 0xBFC JUMP JUMPDEST DUP1 ISZERO PUSH2 0x666 JUMPI DUP1 PUSH1 0x1F LT PUSH2 0x63B JUMPI PUSH2 0x100 DUP1 DUP4 SLOAD DIV MUL DUP4 MSTORE SWAP2 PUSH1 0x20 ADD SWAP2 PUSH2 0x666 JUMP JUMPDEST DUP3 ADD SWAP2 SWAP1 PUSH1 0x0 MSTORE PUSH1 0x20 PUSH1 0x0 KECCAK256 SWAP1 JUMPDEST DUP2 SLOAD DUP2 MSTORE SWAP1 PUSH1 0x1 ADD SWAP1 PUSH1 0x20 ADD DUP1 DUP4 GT PUSH2 0x649 JUMPI DUP3 SWAP1 SUB PUSH1 0x1F AND DUP3 ADD SWAP2 JUMPDEST POP POP POP POP POP DUP2 MSTORE PUSH1 0x20 ADD PUSH1 0x1 DUP3 ADD DUP1 SLOAD PUSH2 0x67F SWAP1 PUSH2 0xBFC JUMP JUMPDEST DUP1 PUSH1 0x1F ADD PUSH1 0x20 DUP1 SWAP2 DIV MUL PUSH1 0x20 ADD PUSH1 0x40 MLOAD SWAP1 DUP2 ADD PUSH1 0x40 MSTORE DUP1 SWAP3 SWAP2 SWAP1 DUP2 DUP2 MSTORE PUSH1 0x20 ADD DUP3 DUP1 SLOAD PUSH2 0x6AB SWAP1 PUSH2 0xBFC JUMP JUMPDEST DUP1 ISZERO PUSH2 0x6F8 JUMPI DUP1 PUSH1 0x1F LT PUSH2 0x6CD JUMPI PUSH2 0x100 DUP1 DUP4 SLOAD DIV MUL DUP4 MSTORE SWAP2 PUSH1 0x20 ADD SWAP2 PUSH2 0x6F8 JUMP JUMPDEST DUP3 ADD SWAP2 SWAP1 PUSH1 0x0 MSTORE PUSH1 0x20 PUSH1 0x0 KECCAK256 SWAP1 JUMPDEST DUP2 SLOAD DUP2 MSTORE SWAP1 PUSH1 0x1 ADD SWAP1 PUSH1 0x20 ADD DUP1 DUP4 GT PUSH2 0x6DB JUMPI DUP3 SWAP1 SUB PUSH1 0x1F AND DUP3 ADD SWAP2 JUMPDEST POP POP POP POP POP DUP2 MSTORE POP POP SWAP2 POP PUSH2 0x902 JUMP JUMPDEST PUSH1 0x0 PUSH1 0x1 DUP2 GT ISZERO PUSH2 0x71C JUMPI PUSH2 0x71B PUSH2 0xC2E JUMP JUMPDEST JUMPDEST DUP2 PUSH1 0x1 DUP2 GT ISZERO PUSH2 0x72F JUMPI PUSH2 0x72E PUSH2 0xC2E JUMP JUMPDEST JUMPDEST EQ DUP1 ISZERO PUSH2 0x785 JUMPI POP PUSH1 0x5 PUSH1 0x0 CALLER PUSH20 0xFFFFFFFFFFFFFFFFFFFFFFFFFFFFFFFFFFFFFFFF AND PUSH20 0xFFFFFFFFFFFFFFFFFFFFFFFFFFFFFFFFFFFFFFFF AND DUP2 MSTORE PUSH1 0x20 ADD SWAP1 DUP2 MSTORE PUSH1 0x20 ADD PUSH1 0x0 KECCAK256 PUSH1 0x0 SWAP1 SLOAD SWAP1 PUSH2 0x100 EXP SWAP1 DIV PUSH1 0xFF AND JUMPDEST ISZERO PUSH2 0x8C2 JUMPI PUSH1 0x0 PUSH1 0x40 MLOAD DUP1 PUSH1 0x40 ADD PUSH1 0x40 MSTORE SWAP1 DUP2 PUSH1 0x0 DUP3 ADD DUP1 SLOAD PUSH2 0x7A7 SWAP1 PUSH2 0xBFC JUMP JUMPDEST DUP1 PUSH1 0x1F ADD PUSH1 0x20 DUP1 SWAP2 DIV MUL PUSH1 0x20 ADD PUSH1 0x40 MLOAD SWAP1 DUP2 ADD PUSH1 0x40 MSTORE DUP1 SWAP3 SWAP2 SWAP1 DUP2 DUP2 MSTORE PUSH1 0x20 ADD DUP3 DUP1 SLOAD PUSH2 0x7D3 SWAP1 PUSH2 0xBFC JUMP JUMPDEST DUP1 ISZERO PUSH2 0x820 JUMPI DUP1 PUSH1 0x1F LT PUSH2 0x7F5 JUMPI PUSH2 0x100 DUP1 DUP4 SLOAD DIV MUL DUP4 MSTORE SWAP2 PUSH1 0x20 ADD SWAP2 PUSH2 0x820 JUMP JUMPDEST DUP3 ADD SWAP2 SWAP1 PUSH1 0x0 MSTORE PUSH1 0x20 PUSH1 0x0 KECCAK256 SWAP1 JUMPDEST DUP2 SLOAD DUP2 MSTORE SWAP1 PUSH1 0x1 ADD SWAP1 PUSH1 0x20 ADD DUP1 DUP4 GT PUSH2 0x803 JUMPI DUP3 SWAP1 SUB PUSH1 0x1F AND DUP3 ADD SWAP2 JUMPDEST POP POP POP POP POP DUP2 MSTORE PUSH1 0x20 ADD PUSH1 0x1 DUP3 ADD DUP1 SLOAD PUSH2 0x839 SWAP1 PUSH2 0xBFC JUMP JUMPDEST DUP1 PUSH1 0x1F ADD PUSH1 0x20 DUP1 SWAP2 DIV MUL PUSH1 0x20 ADD PUSH1 0x40 MLOAD SWAP1 DUP2 ADD PUSH1 0x40 MSTORE DUP1 SWAP3 SWAP2 SWAP1 DUP2 DUP2 MSTORE PUSH1 0x20 ADD DUP3 DUP1 SLOAD PUSH2 0x865 SWAP1 PUSH2 0xBFC JUMP JUMPDEST DUP1 ISZERO PUSH2 0x8B2 JUMPI DUP1 PUSH1 0x1F LT PUSH2 0x887 JUMPI PUSH2 0x100 DUP1 DUP4 SLOAD DIV MUL DUP4 MSTORE SWAP2 PUSH1 0x20 ADD SWAP2 PUSH2 0x8B2 JUMP JUMPDEST DUP3 ADD SWAP2 SWAP1 PUSH1 0x0 MSTORE PUSH1 0x20 PUSH1 0x0 KECCAK256 SWAP1 JUMPDEST DUP2 SLOAD DUP2 MSTORE SWAP1 PUSH1 0x1 ADD SWAP1 PUSH1 0x20 ADD DUP1 DUP4 GT PUSH2 0x895 JUMPI DUP3 SWAP1 SUB PUSH1 0x1F AND DUP3 ADD SWAP2 JUMPDEST POP POP POP POP POP DUP2 MSTORE POP POP SWAP2 POP PUSH2 0x901 JUMP JUMPDEST CALLER DUP2 PUSH1 0x40 MLOAD PUSH32 0x301D703B00000000000000000000000000000000000000000000000000000000 DUP2 MSTORE PUSH1 0x4 ADD PUSH2 0x8F8 SWAP3 SWAP2 SWAP1 PUSH2 0xAAE JUMP JUMPDEST PUSH1 0x40 MLOAD DUP1 SWAP2 SUB SWAP1 REVERT JUMPDEST JUMPDEST POP SWAP1 JUMP JUMPDEST PUSH1 0x40 MLOAD DUP1 PUSH1 0x40 ADD PUSH1 0x40 MSTORE DUP1 PUSH1 0x0 DUP2 MSTORE PUSH1 0x20 ADD PUSH1 0x60 DUP2 MSTORE POP SWAP1 JUMP JUMPDEST PUSH1 0x40 MLOAD DUP1 PUSH1 0x40 ADD PUSH1 0x40 MSTORE DUP1 PUSH1 0x60 DUP2 MSTORE PUSH1 0x20 ADD PUSH1 0x60 DUP2 MSTORE POP SWAP1 JUMP JUMPDEST PUSH1 0x0 DUP2 CALLDATALOAD SWAP1 POP PUSH2 0x949 DUP2 PUSH2 0xCDF JUMP JUMPDEST SWAP3 SWAP2 POP POP JUMP JUMPDEST PUSH1 0x0 DUP2 CALLDATALOAD SWAP1 POP PUSH2 0x95E DUP2 PUSH2 0xCF6 JUMP JUMPDEST SWAP3 SWAP2 POP POP JUMP JUMPDEST PUSH1 0x0 DUP1 PUSH1 0x40 DUP4 DUP6 SUB SLT ISZERO PUSH2 0x97B JUMPI PUSH2 0x97A PUSH2 0xC8C JUMP JUMPDEST JUMPDEST PUSH1 0x0 PUSH2 0x989 DUP6 DUP3 DUP7 ADD PUSH2 0x94F JUMP JUMPDEST SWAP3 POP POP PUSH1 0x20 PUSH2 0x99A DUP6 DUP3 DUP7 ADD PUSH2 0x93A JUMP JUMPDEST SWAP2 POP POP SWAP3 POP SWAP3 SWAP1 POP JUMP JUMPDEST PUSH2 0x9AD DUP2 PUSH2 0xB68 JUMP JUMPDEST DUP3 MSTORE POP POP JUMP JUMPDEST PUSH2 0x9BC DUP2 PUSH2 0xBB7 JUMP JUMPDEST DUP3 MSTORE POP POP JUMP JUMPDEST PUSH1 0x0 PUSH2 0x9CD DUP3 PUSH2 0xB3B JUMP JUMPDEST PUSH2 0x9D7 DUP2 DUP6 PUSH2 0xB46 JUMP JUMPDEST SWAP4 POP PUSH2 0x9E7 DUP2 DUP6 PUSH1 0x20 DUP7 ADD PUSH2 0xBC9 JUMP JUMPDEST PUSH2 0x9F0 DUP2 PUSH2 0xC91 JUMP JUMPDEST DUP5 ADD SWAP2 POP POP SWAP3 SWAP2 POP POP JUMP JUMPDEST PUSH1 0x0 PUSH2 0xA08 PUSH1 0x1E DUP4 PUSH2 0xB57 JUMP JUMPDEST SWAP2 POP PUSH2 0xA13 DUP3 PUSH2 0xCA2 JUMP JUMPDEST PUSH1 0x20 DUP3 ADD SWAP1 POP SWAP2 SWAP1 POP JUMP JUMPDEST PUSH1 0x0 PUSH1 0x40 DUP4 ADD PUSH1 0x0 DUP4 ADD MLOAD DUP5 DUP3 SUB PUSH1 0x0 DUP7 ADD MSTORE PUSH2 0xA3B DUP3 DUP3 PUSH2 0x9C2 JUMP JUMPDEST SWAP2 POP POP PUSH1 0x20 DUP4 ADD MLOAD DUP5 DUP3 SUB PUSH1 0x20 DUP7 ADD MSTORE PUSH2 0xA55 DUP3 DUP3 PUSH2 0x9C2 JUMP JUMPDEST SWAP2 POP POP DUP1 SWAP2 POP POP SWAP3 SWAP2 POP POP JUMP JUMPDEST PUSH1 0x0 PUSH1 0x40 DUP4 ADD PUSH1 0x0 DUP4 ADD MLOAD PUSH2 0xA7A PUSH1 0x0 DUP7 ADD DUP3 PUSH2 0xA9F JUMP JUMPDEST POP PUSH1 0x20 DUP4 ADD MLOAD DUP5 DUP3 SUB PUSH1 0x20 DUP7 ADD MSTORE PUSH2 0xA92 DUP3 DUP3 PUSH2 0x9C2 JUMP JUMPDEST SWAP2 POP POP DUP1 SWAP2 POP POP SWAP3 SWAP2 POP POP JUMP JUMPDEST PUSH2 0xAA8 DUP2 PUSH2 0xBAD JUMP JUMPDEST DUP3 MSTORE POP POP JUMP JUMPDEST PUSH1 0x0 PUSH1 0x40 DUP3 ADD SWAP1 POP PUSH2 0xAC3 PUSH1 0x0 DUP4 ADD DUP6 PUSH2 0x9A4 JUMP JUMPDEST PUSH2 0xAD0 PUSH1 0x20 DUP4 ADD DUP5 PUSH2 0x9B3 JUMP JUMPDEST SWAP4 SWAP3 POP POP POP JUMP JUMPDEST PUSH1 0x0 PUSH1 0x20 DUP3 ADD SWAP1 POP DUP2 DUP2 SUB PUSH1 0x0 DUP4 ADD MSTORE PUSH2 0xAF0 DUP2 PUSH2 0x9FB JUMP JUMPDEST SWAP1 POP SWAP2 SWAP1 POP JUMP JUMPDEST PUSH1 0x0 PUSH1 0x20 DUP3 ADD SWAP1 POP DUP2 DUP2 SUB PUSH1 0x0 DUP4 ADD MSTORE PUSH2 0xB11 DUP2 DUP5 PUSH2 0xA1E JUMP JUMPDEST SWAP1 POP SWAP3 SWAP2 POP POP JUMP JUMPDEST PUSH1 0x0 PUSH1 0x20 DUP3 ADD SWAP1 POP DUP2 DUP2 SUB PUSH1 0x0 DUP4 ADD MSTORE PUSH2 0xB33 DUP2 DUP5 PUSH2 0xA62 JUMP JUMPDEST SWAP1 POP SWAP3 SWAP2 POP POP JUMP JUMPDEST PUSH1 0x0 DUP2 MLOAD SWAP1 POP SWAP2 SWAP1 POP JUMP JUMPDEST PUSH1 0x0 DUP3 DUP3 MSTORE PUSH1 0x20 DUP3 ADD SWAP1 POP SWAP3 SWAP2 POP POP JUMP JUMPDEST PUSH1 0x0 DUP3 DUP3 MSTORE PUSH1 0x20 DUP3 ADD SWAP1 POP SWAP3 SWAP2 POP POP JUMP JUMPDEST PUSH1 0x0 PUSH2 0xB73 DUP3 PUSH2 0xB8D JUMP JUMPDEST SWAP1 POP SWAP2 SWAP1 POP JUMP JUMPDEST PUSH1 0x0 DUP2 SWAP1 POP PUSH2 0xB88 DUP3 PUSH2 0xCCB JUMP JUMPDEST SWAP2 SWAP1 POP JUMP JUMPDEST PUSH1 0x0 PUSH20 0xFFFFFFFFFFFFFFFFFFFFFFFFFFFFFFFFFFFFFFFF DUP3 AND SWAP1 POP SWAP2 SWAP1 POP JUMP JUMPDEST PUSH1 0x0 DUP2 SWAP1 POP SWAP2 SWAP1 POP JUMP JUMPDEST PUSH1 0x0 PUSH2 0xBC2 DUP3 PUSH2 0xB7A JUMP JUMPDEST SWAP1 POP SWAP2 SWAP1 POP JUMP JUMPDEST PUSH1 0x0 JUMPDEST DUP4 DUP2 LT ISZERO PUSH2 0xBE7 JUMPI DUP1 DUP3 ADD MLOAD DUP2 DUP5 ADD MSTORE PUSH1 0x20 DUP2 ADD SWAP1 POP PUSH2 0xBCC JUMP JUMPDEST DUP4 DUP2 GT ISZERO PUSH2 0xBF6 JUMPI PUSH1 0x0 DUP5 DUP5 ADD MSTORE JUMPDEST POP POP POP POP JUMP JUMPDEST PUSH1 0x0 PUSH1 0x2 DUP3 DIV SWAP1 POP PUSH1 0x1 DUP3 AND DUP1 PUSH2 0xC14 JUMPI PUSH1 0x7F DUP3 AND SWAP2 POP JUMPDEST PUSH1 0x20 DUP3 LT DUP2 EQ ISZERO PUSH2 0xC28 JUMPI PUSH2 0xC27 PUSH2 0xC5D JUMP JUMPDEST JUMPDEST POP SWAP2 SWAP1 POP JUMP JUMPDEST PUSH32 0x4E487B7100000000000000000000000000000000000000000000000000000000 PUSH1 0x0 MSTORE PUSH1 0x21 PUSH1 0x4 MSTORE PUSH1 0x24 PUSH1 0x0 REVERT JUMPDEST PUSH32 0x4E487B7100000000000000000000000000000000000000000000000000000000 PUSH1 0x0 MSTORE PUSH1 0x22 PUSH1 0x4 MSTORE PUSH1 0x24 PUSH1 0x0 REVERT JUMPDEST PUSH1 0x0 DUP1 REVERT JUMPDEST PUSH1 0x0 PUSH1 0x1F NOT PUSH1 0x1F DUP4 ADD AND SWAP1 POP SWAP2 SWAP1 POP JUMP JUMPDEST PUSH32 0x4F6E6C79206F776E65722063616E20617574686F72697A652075736572730000 PUSH1 0x0 DUP3 ADD MSTORE POP JUMP JUMPDEST PUSH1 0x2 DUP2 LT PUSH2 0xCDC JUMPI PUSH2 0xCDB PUSH2 0xC2E JUMP JUMPDEST JUMPDEST POP JUMP JUMPDEST PUSH2 0xCE8 DUP2 PUSH2 0xB68 JUMP JUMPDEST DUP2 EQ PUSH2 0xCF3 JUMPI PUSH1 0x0 DUP1 REVERT JUMPDEST POP JUMP JUMPDEST PUSH1 0x2 DUP2 LT PUSH2 0xD03 JUMPI PUSH1 0x0 DUP1 REVERT JUMPDEST POP JUMP INVALID LOG2 PUSH5 0x6970667358 0x22 SLT KECCAK256 SWAP16 LOG0 0xD6 0xB1 PUSH28 0xFEB7CA2D9213B1333035D73DA559F9DBD492984F171ADA3B49412B64 PUSH20 0x6F6C634300080700330000000000000000000000 "
				},
				"gasEstimates": {
					"creation": {
						"codeDepositCost": "677600",
						"executionCost": "infinite",
						"totalCost": "infinite"
					},
					"external": {
						"getBasicInfo()": "infinite",
						"getPersonalInfo()": "infinite",
						"registerUser(uint8,address)": "27269"
					}
				},
				"methodIdentifiers": {
					"getBasicInfo()": "9f999da3",
					"getPersonalInfo()": "81f539ff",
					"registerUser(uint8,address)": "9f0010fc"
				}
			},
			"storageLayout": {
				"storage": [
					{
						"astId": 23,
						"contract": "contracts/artifacts/MyProfile.sol:Identity",
						"label": "basicInfo",
						"offset": 0,
						"slot": "0",
						"type": "t_struct(BasicInfo)5_storage"
					},
					{
						"astId": 26,
						"contract": "contracts/artifacts/MyProfile.sol:Identity",
						"label": "personalInfo",
						"offset": 0,
						"slot": "2",
						"type": "t_struct(PersonalInfo)10_storage"
					},
					{
						"astId": 28,
						"contract": "contracts/artifacts/MyProfile.sol:Identity",
						"label": "owner",
						"offset": 0,
						"slot": "4",
						"type": "t_address"
					},
					{
						"astId": 32,
						"contract": "contracts/artifacts/MyProfile.sol:Identity",
						"label": "basicUsers",
						"offset": 0,
						"slot": "5",
						"type": "t_mapping(t_address,t_bool)"
					},
					{
						"astId": 36,
						"contract": "contracts/artifacts/MyProfile.sol:Identity",
						"label": "personalUsers",
						"offset": 0,
						"slot": "6",
						"type": "t_mapping(t_address,t_bool)"
					}
				],
				"types": {
					"t_address": {
						"encoding": "inplace",
						"label": "address",
						"numberOfBytes": "20"
					},
					"t_bool": {
						"encoding": "inplace",
						"label": "bool",
						"numberOfBytes": "1"
					},
					"t_mapping(t_address,t_bool)": {
						"encoding": "mapping",
						"key": "t_address",
						"label": "mapping(address => bool)",
						"numberOfBytes": "32",
						"value": "t_bool"
					},
					"t_string_storage": {
						"encoding": "bytes",
						"label": "string",
						"numberOfBytes": "32"
					},
					"t_struct(BasicInfo)5_storage": {
						"encoding": "inplace",
						"label": "struct Identity.BasicInfo",
						"members": [
							{
								"astId": 2,
								"contract": "contracts/artifacts/MyProfile.sol:Identity",
								"label": "name",
								"offset": 0,
								"slot": "0",
								"type": "t_string_storage"
							},
							{
								"astId": 4,
								"contract": "contracts/artifacts/MyProfile.sol:Identity",
								"label": "email",
								"offset": 0,
								"slot": "1",
								"type": "t_string_storage"
							}
						],
						"numberOfBytes": "64"
					},
					"t_struct(PersonalInfo)10_storage": {
						"encoding": "inplace",
						"label": "struct Identity.PersonalInfo",
						"members": [
							{
								"astId": 7,
								"contract": "contracts/artifacts/MyProfile.sol:Identity",
								"label": "salary",
								"offset": 0,
								"slot": "0",
								"type": "t_uint256"
							},
							{
								"astId": 9,
								"contract": "contracts/artifacts/MyProfile.sol:Identity",
								"label": "_address",
								"offset": 0,
								"slot": "1",
								"type": "t_string_storage"
							}
						],
						"numberOfBytes": "64"
					},
					"t_uint256": {
						"encoding": "inplace",
						"label": "uint256",
						"numberOfBytes": "32"
					}
				}
			},
			"userdoc": {
				"kind": "user",
				"methods": {},
				"version": 1
			}
		}
	}
}